{"contracts/BoxV2.sol":{"BoxV2":{"abi":[{"inputs":[],"name":"AccessControlBadConfirmation","type":"error"},{"inputs":[{"internalType":"address","name":"account","type":"address"},{"internalType":"bytes32","name":"neededRole","type":"bytes32"}],"name":"AccessControlUnauthorizedAccount","type":"error"},{"inputs":[{"internalType":"address","name":"target","type":"address"}],"name":"AddressEmptyCode","type":"error"},{"inputs":[{"internalType":"address","name":"implementation","type":"address"}],"name":"ERC1967InvalidImplementation","type":"error"},{"inputs":[],"name":"ERC1967NonPayable","type":"error"},{"inputs":[],"name":"FailedInnerCall","type":"error"},{"inputs":[],"name":"InvalidInitialization","type":"error"},{"inputs":[],"name":"NotInitializing","type":"error"},{"inputs":[],"name":"UUPSUnauthorizedCallContext","type":"error"},{"inputs":[{"internalType":"bytes32","name":"slot","type":"bytes32"}],"name":"UUPSUnsupportedProxiableUUID","type":"error"},{"anonymous":false,"inputs":[{"indexed":false,"internalType":"uint64","name":"version","type":"uint64"}],"name":"Initialized","type":"event"},{"anonymous":false,"inputs":[{"indexed":true,"internalType":"bytes32","name":"role","type":"bytes32"},{"indexed":true,"internalType":"bytes32","name":"previousAdminRole","type":"bytes32"},{"indexed":true,"internalType":"bytes32","name":"newAdminRole","type":"bytes32"}],"name":"RoleAdminChanged","type":"event"},{"anonymous":false,"inputs":[{"indexed":true,"internalType":"bytes32","name":"role","type":"bytes32"},{"indexed":true,"internalType":"address","name":"account","type":"address"},{"indexed":true,"internalType":"address","name":"sender","type":"address"}],"name":"RoleGranted","type":"event"},{"anonymous":false,"inputs":[{"indexed":true,"internalType":"bytes32","name":"role","type":"bytes32"},{"indexed":true,"internalType":"address","name":"account","type":"address"},{"indexed":true,"internalType":"address","name":"sender","type":"address"}],"name":"RoleRevoked","type":"event"},{"anonymous":false,"inputs":[{"indexed":true,"internalType":"address","name":"implementation","type":"address"}],"name":"Upgraded","type":"event"},{"inputs":[],"name":"DEFAULT_ADMIN_ROLE","outputs":[{"internalType":"bytes32","name":"","type":"bytes32"}],"stateMutability":"view","type":"function"},{"inputs":[],"name":"OPERATOR_ROLE","outputs":[{"internalType":"bytes32","name":"","type":"bytes32"}],"stateMutability":"view","type":"function"},{"inputs":[],"name":"UPGRADER_ROLE","outputs":[{"internalType":"bytes32","name":"","type":"bytes32"}],"stateMutability":"view","type":"function"},{"inputs":[],"name":"UPGRADE_INTERFACE_VERSION","outputs":[{"internalType":"string","name":"","type":"string"}],"stateMutability":"view","type":"function"},{"inputs":[],"name":"addObject","outputs":[],"stateMutability":"nonpayable","type":"function"},{"inputs":[],"name":"boxVersion","outputs":[{"internalType":"uint256","name":"","type":"uint256"}],"stateMutability":"pure","type":"function"},{"inputs":[{"internalType":"bytes32","name":"role","type":"bytes32"}],"name":"getRoleAdmin","outputs":[{"internalType":"bytes32","name":"","type":"bytes32"}],"stateMutability":"view","type":"function"},{"inputs":[{"internalType":"bytes32","name":"role","type":"bytes32"},{"internalType":"address","name":"account","type":"address"}],"name":"grantRole","outputs":[],"stateMutability":"nonpayable","type":"function"},{"inputs":[{"internalType":"bytes32","name":"role","type":"bytes32"},{"internalType":"address","name":"account","type":"address"}],"name":"hasRole","outputs":[{"internalType":"bool","name":"","type":"bool"}],"stateMutability":"view","type":"function"},{"inputs":[{"internalType":"uint256","name":"objects","type":"uint256"},{"internalType":"address","name":"multisig","type":"address"}],"name":"initialize","outputs":[],"stateMutability":"nonpayable","type":"function"},{"inputs":[],"name":"numberOfObjects","outputs":[{"internalType":"uint256","name":"","type":"uint256"}],"stateMutability":"view","type":"function"},{"inputs":[],"name":"proxiableUUID","outputs":[{"internalType":"bytes32","name":"","type":"bytes32"}],"stateMutability":"view","type":"function"},{"inputs":[],"name":"removeObject","outputs":[],"stateMutability":"nonpayable","type":"function"},{"inputs":[{"internalType":"bytes32","name":"role","type":"bytes32"},{"internalType":"address","name":"callerConfirmation","type":"address"}],"name":"renounceRole","outputs":[],"stateMutability":"nonpayable","type":"function"},{"inputs":[{"internalType":"bytes32","name":"role","type":"bytes32"},{"internalType":"address","name":"account","type":"address"}],"name":"revokeRole","outputs":[],"stateMutability":"nonpayable","type":"function"},{"inputs":[{"internalType":"bytes4","name":"interfaceId","type":"bytes4"}],"name":"supportsInterface","outputs":[{"internalType":"bool","name":"","type":"bool"}],"stateMutability":"view","type":"function"},{"inputs":[{"internalType":"address","name":"newImplementation","type":"address"},{"internalType":"bytes","name":"data","type":"bytes"}],"name":"upgradeToAndCall","outputs":[],"stateMutability":"payable","type":"function"}],"evm":{"bytecode":{"linkReferences":{},"object":"60a06040523073ffffffffffffffffffffffffffffffffffffffff1660809073ffffffffffffffffffffffffffffffffffffffff1681525034801561004357600080fd5b50608051611a0d61006d60003960008181610b8d01528181610be20152610dc00152611a0d6000f3fe6080604052600436106100fe5760003560e01c8063658504d111610095578063c4df490e11610064578063c4df490e14610302578063d547741f1461032d578063da35a26f14610356578063f5b541a61461037f578063f72c0d8b146103aa576100fe565b8063658504d11461024457806391d148541461026f578063a217fddf146102ac578063ad3cb1cc146102d7576100fe565b806336568abe116100d157806336568abe146101bd5780634f1ef286146101e657806352d1902d1461020257806362029d2a1461022d576100fe565b806301ffc9a7146101035780632102ffaa14610140578063248a9ca3146101575780632f2ff15d14610194575b600080fd5b34801561010f57600080fd5b5061012a600480360381019061012591906112fc565b6103d5565b6040516101379190611344565b60405180910390f35b34801561014c57600080fd5b5061015561044f565b005b34801561016357600080fd5b5061017e60048036038101906101799190611395565b6104af565b60405161018b91906113d1565b60405180910390f35b3480156101a057600080fd5b506101bb60048036038101906101b6919061144a565b6104dd565b005b3480156101c957600080fd5b506101e460048036038101906101df919061144a565b6104ff565b005b61020060048036038101906101fb91906115d0565b61057a565b005b34801561020e57600080fd5b50610217610599565b60405161022491906113d1565b60405180910390f35b34801561023957600080fd5b506102426105cc565b005b34801561025057600080fd5b506102596105e7565b6040516102669190611645565b60405180910390f35b34801561027b57600080fd5b506102966004803603810190610291919061144a565b6105ed565b6040516102a39190611344565b60405180910390f35b3480156102b857600080fd5b506102c1610666565b6040516102ce91906113d1565b60405180910390f35b3480156102e357600080fd5b506102ec61066d565b6040516102f991906116df565b60405180910390f35b34801561030e57600080fd5b506103176106a6565b6040516103249190611645565b60405180910390f35b34801561033957600080fd5b50610354600480360381019061034f919061144a565b6106af565b005b34801561036257600080fd5b5061037d6004803603810190610378919061172d565b6106d1565b005b34801561038b57600080fd5b50610394610892565b6040516103a191906113d1565b60405180910390f35b3480156103b657600080fd5b506103bf6108b6565b6040516103cc91906113d1565b60405180910390f35b60007f7965db0b000000000000000000000000000000000000000000000000000000007bffffffffffffffffffffffffffffffffffffffffffffffffffffffff1916827bffffffffffffffffffffffffffffffffffffffffffffffffffffffff191614806104485750610447826108da565b5b9050919050565b600160005411610494576040517f08c379a000000000000000000000000000000000000000000000000000000000815260040161048b906117b9565b60405180910390fd5b60016000808282546104a69190611808565b92505081905550565b6000806104ba610944565b905080600001600084815260200190815260200160002060010154915050919050565b6104e6826104af565b6104ef8161096c565b6104f98383610980565b50505050565b610507610a81565b73ffffffffffffffffffffffffffffffffffffffff168173ffffffffffffffffffffffffffffffffffffffff161461056b576040517f6697b23200000000000000000000000000000000000000000000000000000000815260040160405180910390fd5b6105758282610a89565b505050565b610582610b8b565b61058b82610c71565b6105958282610c9f565b5050565b60006105a3610dbe565b7f360894a13ba1a3210667c828492db98dca3e2076cc3735a920a3ca505d382bbc60001b905090565b60016000808282546105de919061183c565b92505081905550565b60005481565b6000806105f8610944565b905080600001600085815260200190815260200160002060000160008473ffffffffffffffffffffffffffffffffffffffff1673ffffffffffffffffffffffffffffffffffffffff16815260200190815260200160002060009054906101000a900460ff1691505092915050565b6000801b81565b6040518060400160405280600581526020017f352e302e3000000000000000000000000000000000000000000000000000000081525081565b60006002905090565b6106b8826104af565b6106c18161096c565b6106cb8383610a89565b50505050565b60006106db610e45565b905060008160000160089054906101000a900460ff1615905060008260000160009054906101000a900467ffffffffffffffff1690506000808267ffffffffffffffff161480156107295750825b9050600060018367ffffffffffffffff1614801561075e575060003073ffffffffffffffffffffffffffffffffffffffff163b145b90508115801561076c575080155b156107a3576040517ff92ee8a900000000000000000000000000000000000000000000000000000000815260040160405180910390fd5b60018560000160006101000a81548167ffffffffffffffff021916908367ffffffffffffffff16021790555083156107f35760018560000160086101000a81548160ff0219169083151502179055505b6107fb610e6d565b8660008190555061082c7f55504752414445525f524f4c450000000000000000000000000000000000000087610980565b5083156108895760008560000160086101000a81548160ff0219169083151502179055507fc7f505b2f371ae2175ee4913f4499e1f2633a7b5936321eed1cdaeb6115181d2600160405161088091906118c9565b60405180910390a15b50505050505050565b7f4f50455241544f525f524f4c450000000000000000000000000000000000000081565b7f55504752414445525f524f4c450000000000000000000000000000000000000081565b60007f01ffc9a7000000000000000000000000000000000000000000000000000000007bffffffffffffffffffffffffffffffffffffffffffffffffffffffff1916827bffffffffffffffffffffffffffffffffffffffffffffffffffffffff1916149050919050565b60007f02dd7bc7dec4dceedda775e58dd541e08a116c6c53815c0bd028192f7b626800905090565b61097d81610978610a81565b610e95565b50565b60008061098b610944565b905061099784846105ed565b610a7557600181600001600086815260200190815260200160002060000160008573ffffffffffffffffffffffffffffffffffffffff1673ffffffffffffffffffffffffffffffffffffffff16815260200190815260200160002060006101000a81548160ff021916908315150217905550610a11610a81565b73ffffffffffffffffffffffffffffffffffffffff168373ffffffffffffffffffffffffffffffffffffffff16857f2f8788117e7eff1d82e926ec794901d17c78024a50270940304540a733656f0d60405160405180910390a46001915050610a7b565b60009150505b92915050565b600033905090565b600080610a94610944565b9050610aa084846105ed565b15610b7f57600081600001600086815260200190815260200160002060000160008573ffffffffffffffffffffffffffffffffffffffff1673ffffffffffffffffffffffffffffffffffffffff16815260200190815260200160002060006101000a81548160ff021916908315150217905550610b1b610a81565b73ffffffffffffffffffffffffffffffffffffffff168373ffffffffffffffffffffffffffffffffffffffff16857ff6391f5c32d9c69d2a47ea670b442974b53935d1edc7fd64eb21e047a839171b60405160405180910390a46001915050610b85565b60009150505b92915050565b7f000000000000000000000000000000000000000000000000000000000000000073ffffffffffffffffffffffffffffffffffffffff163073ffffffffffffffffffffffffffffffffffffffff161480610c3857507f000000000000000000000000000000000000000000000000000000000000000073ffffffffffffffffffffffffffffffffffffffff16610c1f610ee6565b73ffffffffffffffffffffffffffffffffffffffff1614155b15610c6f576040517fe07c8dba00000000000000000000000000000000000000000000000000000000815260040160405180910390fd5b565b7f55504752414445525f524f4c4500000000000000000000000000000000000000610c9b8161096c565b5050565b8173ffffffffffffffffffffffffffffffffffffffff166352d1902d6040518163ffffffff1660e01b8152600401602060405180830381865afa925050508015610d0757506040513d601f19601f82011682018060405250810190610d0491906118f9565b60015b610d4857816040517f4c9c8ce3000000000000000000000000000000000000000000000000000000008152600401610d3f9190611935565b60405180910390fd5b7f360894a13ba1a3210667c828492db98dca3e2076cc3735a920a3ca505d382bbc60001b8114610daf57806040517faa1d49a4000000000000000000000000000000000000000000000000000000008152600401610da691906113d1565b60405180910390fd5b610db98383610f3d565b505050565b7f000000000000000000000000000000000000000000000000000000000000000073ffffffffffffffffffffffffffffffffffffffff163073ffffffffffffffffffffffffffffffffffffffff1614610e43576040517fe07c8dba00000000000000000000000000000000000000000000000000000000815260040160405180910390fd5b565b60007ff0c57e16840df040f15088dc2f81fe391c3923bec73e23a9662efc9c229c6a00905090565b610e75610fb0565b610e7d610ff0565b610e85610ffa565b610e926000801b33610980565b50565b610e9f82826105ed565b610ee25780826040517fe2517d3f000000000000000000000000000000000000000000000000000000008152600401610ed9929190611950565b60405180910390fd5b5050565b6000610f147f360894a13ba1a3210667c828492db98dca3e2076cc3735a920a3ca505d382bbc60001b611004565b60000160009054906101000a900473ffffffffffffffffffffffffffffffffffffffff16905090565b610f468261100e565b8173ffffffffffffffffffffffffffffffffffffffff167fbc7cd75a20ee27fd9adebab32041f755214dbc6bffa90cc0225b39da2e5c2d3b60405160405180910390a2600081511115610fa357610f9d82826110db565b50610fac565b610fab61115f565b5b5050565b610fb861119c565b610fee576040517fd7e6bcf800000000000000000000000000000000000000000000000000000000815260040160405180910390fd5b565b610ff8610fb0565b565b611002610fb0565b565b6000819050919050565b60008173ffffffffffffffffffffffffffffffffffffffff163b0361106a57806040517f4c9c8ce30000000000000000000000000000000000000000000000000000000081526004016110619190611935565b60405180910390fd5b806110977f360894a13ba1a3210667c828492db98dca3e2076cc3735a920a3ca505d382bbc60001b611004565b60000160006101000a81548173ffffffffffffffffffffffffffffffffffffffff021916908373ffffffffffffffffffffffffffffffffffffffff16021790555050565b60606000808473ffffffffffffffffffffffffffffffffffffffff168460405161110591906119c0565b600060405180830381855af49150503d8060008114611140576040519150601f19603f3d011682016040523d82523d6000602084013e611145565b606091505b50915091506111558583836111bc565b9250505092915050565b600034111561119a576040517fb398979f00000000000000000000000000000000000000000000000000000000815260040160405180910390fd5b565b60006111a6610e45565b60000160089054906101000a900460ff16905090565b6060826111d1576111cc8261124b565b611243565b600082511480156111f9575060008473ffffffffffffffffffffffffffffffffffffffff163b145b1561123b57836040517f9996b3150000000000000000000000000000000000000000000000000000000081526004016112329190611935565b60405180910390fd5b819050611244565b5b9392505050565b60008151111561125e5780518082602001fd5b6040517f1425ea4200000000000000000000000000000000000000000000000000000000815260040160405180910390fd5b6000604051905090565b600080fd5b600080fd5b60007fffffffff0000000000000000000000000000000000000000000000000000000082169050919050565b6112d9816112a4565b81146112e457600080fd5b50565b6000813590506112f6816112d0565b92915050565b6000602082840312156113125761131161129a565b5b6000611320848285016112e7565b91505092915050565b60008115159050919050565b61133e81611329565b82525050565b60006020820190506113596000830184611335565b92915050565b6000819050919050565b6113728161135f565b811461137d57600080fd5b50565b60008135905061138f81611369565b92915050565b6000602082840312156113ab576113aa61129a565b5b60006113b984828501611380565b91505092915050565b6113cb8161135f565b82525050565b60006020820190506113e660008301846113c2565b92915050565b600073ffffffffffffffffffffffffffffffffffffffff82169050919050565b6000611417826113ec565b9050919050565b6114278161140c565b811461143257600080fd5b50565b6000813590506114448161141e565b92915050565b600080604083850312156114615761146061129a565b5b600061146f85828601611380565b925050602061148085828601611435565b9150509250929050565b600080fd5b600080fd5b6000601f19601f8301169050919050565b7f4e487b7100000000000000000000000000000000000000000000000000000000600052604160045260246000fd5b6114dd82611494565b810181811067ffffffffffffffff821117156114fc576114fb6114a5565b5b80604052505050565b600061150f611290565b905061151b82826114d4565b919050565b600067ffffffffffffffff82111561153b5761153a6114a5565b5b61154482611494565b9050602081019050919050565b82818337600083830152505050565b600061157361156e84611520565b611505565b90508281526020810184848401111561158f5761158e61148f565b5b61159a848285611551565b509392505050565b600082601f8301126115b7576115b661148a565b5b81356115c7848260208601611560565b91505092915050565b600080604083850312156115e7576115e661129a565b5b60006115f585828601611435565b925050602083013567ffffffffffffffff8111156116165761161561129f565b5b611622858286016115a2565b9150509250929050565b6000819050919050565b61163f8161162c565b82525050565b600060208201905061165a6000830184611636565b92915050565b600081519050919050565b600082825260208201905092915050565b60005b8381101561169a57808201518184015260208101905061167f565b60008484015250505050565b60006116b182611660565b6116bb818561166b565b93506116cb81856020860161167c565b6116d481611494565b840191505092915050565b600060208201905081810360008301526116f981846116a6565b905092915050565b61170a8161162c565b811461171557600080fd5b50565b60008135905061172781611701565b92915050565b600080604083850312156117445761174361129a565b5b600061175285828601611718565b925050602061176385828601611435565b9150509250929050565b7f4e6f7468696e6720696e73696465000000000000000000000000000000000000600082015250565b60006117a3600e8361166b565b91506117ae8261176d565b602082019050919050565b600060208201905081810360008301526117d281611796565b9050919050565b7f4e487b7100000000000000000000000000000000000000000000000000000000600052601160045260246000fd5b60006118138261162c565b915061181e8361162c565b9250828203905081811115611836576118356117d9565b5b92915050565b60006118478261162c565b91506118528361162c565b925082820190508082111561186a576118696117d9565b5b92915050565b6000819050919050565b600067ffffffffffffffff82169050919050565b6000819050919050565b60006118b36118ae6118a984611870565b61188e565b61187a565b9050919050565b6118c381611898565b82525050565b60006020820190506118de60008301846118ba565b92915050565b6000815190506118f381611369565b92915050565b60006020828403121561190f5761190e61129a565b5b600061191d848285016118e4565b91505092915050565b61192f8161140c565b82525050565b600060208201905061194a6000830184611926565b92915050565b60006040820190506119656000830185611926565b61197260208301846113c2565b9392505050565b600081519050919050565b600081905092915050565b600061199a82611979565b6119a48185611984565b93506119b481856020860161167c565b80840191505092915050565b60006119cc828461198f565b91508190509291505056fea264697066735822122067fa2c6008f8a0aa1bf9ed172e4a2320869f7cbb89b67dc06e084366aa28b94164736f6c63430008140033","opcodes":"PUSH1 0xA0 PUSH1 0x40 MSTORE ADDRESS PUSH20 0xFFFFFFFFFFFFFFFFFFFFFFFFFFFFFFFFFFFFFFFF AND PUSH1 0x80 SWAP1 PUSH20 0xFFFFFFFFFFFFFFFFFFFFFFFFFFFFFFFFFFFFFFFF AND DUP2 MSTORE POP CALLVALUE DUP1 ISZERO PUSH2 0x43 JUMPI PUSH1 0x0 DUP1 REVERT JUMPDEST POP PUSH1 0x80 MLOAD PUSH2 0x1A0D PUSH2 0x6D PUSH1 0x0 CODECOPY PUSH1 0x0 DUP2 DUP2 PUSH2 0xB8D ADD MSTORE DUP2 DUP2 PUSH2 0xBE2 ADD MSTORE PUSH2 0xDC0 ADD MSTORE PUSH2 0x1A0D PUSH1 0x0 RETURN INVALID PUSH1 0x80 PUSH1 0x40 MSTORE PUSH1 0x4 CALLDATASIZE LT PUSH2 0xFE JUMPI PUSH1 0x0 CALLDATALOAD PUSH1 0xE0 SHR DUP1 PUSH4 0x658504D1 GT PUSH2 0x95 JUMPI DUP1 PUSH4 0xC4DF490E GT PUSH2 0x64 JUMPI DUP1 PUSH4 0xC4DF490E EQ PUSH2 0x302 JUMPI DUP1 PUSH4 0xD547741F EQ PUSH2 0x32D JUMPI DUP1 PUSH4 0xDA35A26F EQ PUSH2 0x356 JUMPI DUP1 PUSH4 0xF5B541A6 EQ PUSH2 0x37F JUMPI DUP1 PUSH4 0xF72C0D8B EQ PUSH2 0x3AA JUMPI PUSH2 0xFE JUMP JUMPDEST DUP1 PUSH4 0x658504D1 EQ PUSH2 0x244 JUMPI DUP1 PUSH4 0x91D14854 EQ PUSH2 0x26F JUMPI DUP1 PUSH4 0xA217FDDF EQ PUSH2 0x2AC JUMPI DUP1 PUSH4 0xAD3CB1CC EQ PUSH2 0x2D7 JUMPI PUSH2 0xFE JUMP JUMPDEST DUP1 PUSH4 0x36568ABE GT PUSH2 0xD1 JUMPI DUP1 PUSH4 0x36568ABE EQ PUSH2 0x1BD JUMPI DUP1 PUSH4 0x4F1EF286 EQ PUSH2 0x1E6 JUMPI DUP1 PUSH4 0x52D1902D EQ PUSH2 0x202 JUMPI DUP1 PUSH4 0x62029D2A EQ PUSH2 0x22D JUMPI PUSH2 0xFE JUMP JUMPDEST DUP1 PUSH4 0x1FFC9A7 EQ PUSH2 0x103 JUMPI DUP1 PUSH4 0x2102FFAA EQ PUSH2 0x140 JUMPI DUP1 PUSH4 0x248A9CA3 EQ PUSH2 0x157 JUMPI DUP1 PUSH4 0x2F2FF15D EQ PUSH2 0x194 JUMPI JUMPDEST PUSH1 0x0 DUP1 REVERT JUMPDEST CALLVALUE DUP1 ISZERO PUSH2 0x10F JUMPI PUSH1 0x0 DUP1 REVERT JUMPDEST POP PUSH2 0x12A PUSH1 0x4 DUP1 CALLDATASIZE SUB DUP2 ADD SWAP1 PUSH2 0x125 SWAP2 SWAP1 PUSH2 0x12FC JUMP JUMPDEST PUSH2 0x3D5 JUMP JUMPDEST PUSH1 0x40 MLOAD PUSH2 0x137 SWAP2 SWAP1 PUSH2 0x1344 JUMP JUMPDEST PUSH1 0x40 MLOAD DUP1 SWAP2 SUB SWAP1 RETURN JUMPDEST CALLVALUE DUP1 ISZERO PUSH2 0x14C JUMPI PUSH1 0x0 DUP1 REVERT JUMPDEST POP PUSH2 0x155 PUSH2 0x44F JUMP JUMPDEST STOP JUMPDEST CALLVALUE DUP1 ISZERO PUSH2 0x163 JUMPI PUSH1 0x0 DUP1 REVERT JUMPDEST POP PUSH2 0x17E PUSH1 0x4 DUP1 CALLDATASIZE SUB DUP2 ADD SWAP1 PUSH2 0x179 SWAP2 SWAP1 PUSH2 0x1395 JUMP JUMPDEST PUSH2 0x4AF JUMP JUMPDEST PUSH1 0x40 MLOAD PUSH2 0x18B SWAP2 SWAP1 PUSH2 0x13D1 JUMP JUMPDEST PUSH1 0x40 MLOAD DUP1 SWAP2 SUB SWAP1 RETURN JUMPDEST CALLVALUE DUP1 ISZERO PUSH2 0x1A0 JUMPI PUSH1 0x0 DUP1 REVERT JUMPDEST POP PUSH2 0x1BB PUSH1 0x4 DUP1 CALLDATASIZE SUB DUP2 ADD SWAP1 PUSH2 0x1B6 SWAP2 SWAP1 PUSH2 0x144A JUMP JUMPDEST PUSH2 0x4DD JUMP JUMPDEST STOP JUMPDEST CALLVALUE DUP1 ISZERO PUSH2 0x1C9 JUMPI PUSH1 0x0 DUP1 REVERT JUMPDEST POP PUSH2 0x1E4 PUSH1 0x4 DUP1 CALLDATASIZE SUB DUP2 ADD SWAP1 PUSH2 0x1DF SWAP2 SWAP1 PUSH2 0x144A JUMP JUMPDEST PUSH2 0x4FF JUMP JUMPDEST STOP JUMPDEST PUSH2 0x200 PUSH1 0x4 DUP1 CALLDATASIZE SUB DUP2 ADD SWAP1 PUSH2 0x1FB SWAP2 SWAP1 PUSH2 0x15D0 JUMP JUMPDEST PUSH2 0x57A JUMP JUMPDEST STOP JUMPDEST CALLVALUE DUP1 ISZERO PUSH2 0x20E JUMPI PUSH1 0x0 DUP1 REVERT JUMPDEST POP PUSH2 0x217 PUSH2 0x599 JUMP JUMPDEST PUSH1 0x40 MLOAD PUSH2 0x224 SWAP2 SWAP1 PUSH2 0x13D1 JUMP JUMPDEST PUSH1 0x40 MLOAD DUP1 SWAP2 SUB SWAP1 RETURN JUMPDEST CALLVALUE DUP1 ISZERO PUSH2 0x239 JUMPI PUSH1 0x0 DUP1 REVERT JUMPDEST POP PUSH2 0x242 PUSH2 0x5CC JUMP JUMPDEST STOP JUMPDEST CALLVALUE DUP1 ISZERO PUSH2 0x250 JUMPI PUSH1 0x0 DUP1 REVERT JUMPDEST POP PUSH2 0x259 PUSH2 0x5E7 JUMP JUMPDEST PUSH1 0x40 MLOAD PUSH2 0x266 SWAP2 SWAP1 PUSH2 0x1645 JUMP JUMPDEST PUSH1 0x40 MLOAD DUP1 SWAP2 SUB SWAP1 RETURN JUMPDEST CALLVALUE DUP1 ISZERO PUSH2 0x27B JUMPI PUSH1 0x0 DUP1 REVERT JUMPDEST POP PUSH2 0x296 PUSH1 0x4 DUP1 CALLDATASIZE SUB DUP2 ADD SWAP1 PUSH2 0x291 SWAP2 SWAP1 PUSH2 0x144A JUMP JUMPDEST PUSH2 0x5ED JUMP JUMPDEST PUSH1 0x40 MLOAD PUSH2 0x2A3 SWAP2 SWAP1 PUSH2 0x1344 JUMP JUMPDEST PUSH1 0x40 MLOAD DUP1 SWAP2 SUB SWAP1 RETURN JUMPDEST CALLVALUE DUP1 ISZERO PUSH2 0x2B8 JUMPI PUSH1 0x0 DUP1 REVERT JUMPDEST POP PUSH2 0x2C1 PUSH2 0x666 JUMP JUMPDEST PUSH1 0x40 MLOAD PUSH2 0x2CE SWAP2 SWAP1 PUSH2 0x13D1 JUMP JUMPDEST PUSH1 0x40 MLOAD DUP1 SWAP2 SUB SWAP1 RETURN JUMPDEST CALLVALUE DUP1 ISZERO PUSH2 0x2E3 JUMPI PUSH1 0x0 DUP1 REVERT JUMPDEST POP PUSH2 0x2EC PUSH2 0x66D JUMP JUMPDEST PUSH1 0x40 MLOAD PUSH2 0x2F9 SWAP2 SWAP1 PUSH2 0x16DF JUMP JUMPDEST PUSH1 0x40 MLOAD DUP1 SWAP2 SUB SWAP1 RETURN JUMPDEST CALLVALUE DUP1 ISZERO PUSH2 0x30E JUMPI PUSH1 0x0 DUP1 REVERT JUMPDEST POP PUSH2 0x317 PUSH2 0x6A6 JUMP JUMPDEST PUSH1 0x40 MLOAD PUSH2 0x324 SWAP2 SWAP1 PUSH2 0x1645 JUMP JUMPDEST PUSH1 0x40 MLOAD DUP1 SWAP2 SUB SWAP1 RETURN JUMPDEST CALLVALUE DUP1 ISZERO PUSH2 0x339 JUMPI PUSH1 0x0 DUP1 REVERT JUMPDEST POP PUSH2 0x354 PUSH1 0x4 DUP1 CALLDATASIZE SUB DUP2 ADD SWAP1 PUSH2 0x34F SWAP2 SWAP1 PUSH2 0x144A JUMP JUMPDEST PUSH2 0x6AF JUMP JUMPDEST STOP JUMPDEST CALLVALUE DUP1 ISZERO PUSH2 0x362 JUMPI PUSH1 0x0 DUP1 REVERT JUMPDEST POP PUSH2 0x37D PUSH1 0x4 DUP1 CALLDATASIZE SUB DUP2 ADD SWAP1 PUSH2 0x378 SWAP2 SWAP1 PUSH2 0x172D JUMP JUMPDEST PUSH2 0x6D1 JUMP JUMPDEST STOP JUMPDEST CALLVALUE DUP1 ISZERO PUSH2 0x38B JUMPI PUSH1 0x0 DUP1 REVERT JUMPDEST POP PUSH2 0x394 PUSH2 0x892 JUMP JUMPDEST PUSH1 0x40 MLOAD PUSH2 0x3A1 SWAP2 SWAP1 PUSH2 0x13D1 JUMP JUMPDEST PUSH1 0x40 MLOAD DUP1 SWAP2 SUB SWAP1 RETURN JUMPDEST CALLVALUE DUP1 ISZERO PUSH2 0x3B6 JUMPI PUSH1 0x0 DUP1 REVERT JUMPDEST POP PUSH2 0x3BF PUSH2 0x8B6 JUMP JUMPDEST PUSH1 0x40 MLOAD PUSH2 0x3CC SWAP2 SWAP1 PUSH2 0x13D1 JUMP JUMPDEST PUSH1 0x40 MLOAD DUP1 SWAP2 SUB SWAP1 RETURN JUMPDEST PUSH1 0x0 PUSH32 0x7965DB0B00000000000000000000000000000000000000000000000000000000 PUSH28 0xFFFFFFFFFFFFFFFFFFFFFFFFFFFFFFFFFFFFFFFFFFFFFFFFFFFFFFFF NOT AND DUP3 PUSH28 0xFFFFFFFFFFFFFFFFFFFFFFFFFFFFFFFFFFFFFFFFFFFFFFFFFFFFFFFF NOT AND EQ DUP1 PUSH2 0x448 JUMPI POP PUSH2 0x447 DUP3 PUSH2 0x8DA JUMP JUMPDEST JUMPDEST SWAP1 POP SWAP2 SWAP1 POP JUMP JUMPDEST PUSH1 0x1 PUSH1 0x0 SLOAD GT PUSH2 0x494 JUMPI PUSH1 0x40 MLOAD PUSH32 0x8C379A000000000000000000000000000000000000000000000000000000000 DUP2 MSTORE PUSH1 0x4 ADD PUSH2 0x48B SWAP1 PUSH2 0x17B9 JUMP JUMPDEST PUSH1 0x40 MLOAD DUP1 SWAP2 SUB SWAP1 REVERT JUMPDEST PUSH1 0x1 PUSH1 0x0 DUP1 DUP3 DUP3 SLOAD PUSH2 0x4A6 SWAP2 SWAP1 PUSH2 0x1808 JUMP JUMPDEST SWAP3 POP POP DUP2 SWAP1 SSTORE POP JUMP JUMPDEST PUSH1 0x0 DUP1 PUSH2 0x4BA PUSH2 0x944 JUMP JUMPDEST SWAP1 POP DUP1 PUSH1 0x0 ADD PUSH1 0x0 DUP5 DUP2 MSTORE PUSH1 0x20 ADD SWAP1 DUP2 MSTORE PUSH1 0x20 ADD PUSH1 0x0 KECCAK256 PUSH1 0x1 ADD SLOAD SWAP2 POP POP SWAP2 SWAP1 POP JUMP JUMPDEST PUSH2 0x4E6 DUP3 PUSH2 0x4AF JUMP JUMPDEST PUSH2 0x4EF DUP2 PUSH2 0x96C JUMP JUMPDEST PUSH2 0x4F9 DUP4 DUP4 PUSH2 0x980 JUMP JUMPDEST POP POP POP POP JUMP JUMPDEST PUSH2 0x507 PUSH2 0xA81 JUMP JUMPDEST PUSH20 0xFFFFFFFFFFFFFFFFFFFFFFFFFFFFFFFFFFFFFFFF AND DUP2 PUSH20 0xFFFFFFFFFFFFFFFFFFFFFFFFFFFFFFFFFFFFFFFF AND EQ PUSH2 0x56B JUMPI PUSH1 0x40 MLOAD PUSH32 0x6697B23200000000000000000000000000000000000000000000000000000000 DUP2 MSTORE PUSH1 0x4 ADD PUSH1 0x40 MLOAD DUP1 SWAP2 SUB SWAP1 REVERT JUMPDEST PUSH2 0x575 DUP3 DUP3 PUSH2 0xA89 JUMP JUMPDEST POP POP POP JUMP JUMPDEST PUSH2 0x582 PUSH2 0xB8B JUMP JUMPDEST PUSH2 0x58B DUP3 PUSH2 0xC71 JUMP JUMPDEST PUSH2 0x595 DUP3 DUP3 PUSH2 0xC9F JUMP JUMPDEST POP POP JUMP JUMPDEST PUSH1 0x0 PUSH2 0x5A3 PUSH2 0xDBE JUMP JUMPDEST PUSH32 0x360894A13BA1A3210667C828492DB98DCA3E2076CC3735A920A3CA505D382BBC PUSH1 0x0 SHL SWAP1 POP SWAP1 JUMP JUMPDEST PUSH1 0x1 PUSH1 0x0 DUP1 DUP3 DUP3 SLOAD PUSH2 0x5DE SWAP2 SWAP1 PUSH2 0x183C JUMP JUMPDEST SWAP3 POP POP DUP2 SWAP1 SSTORE POP JUMP JUMPDEST PUSH1 0x0 SLOAD DUP2 JUMP JUMPDEST PUSH1 0x0 DUP1 PUSH2 0x5F8 PUSH2 0x944 JUMP JUMPDEST SWAP1 POP DUP1 PUSH1 0x0 ADD PUSH1 0x0 DUP6 DUP2 MSTORE PUSH1 0x20 ADD SWAP1 DUP2 MSTORE PUSH1 0x20 ADD PUSH1 0x0 KECCAK256 PUSH1 0x0 ADD PUSH1 0x0 DUP5 PUSH20 0xFFFFFFFFFFFFFFFFFFFFFFFFFFFFFFFFFFFFFFFF AND PUSH20 0xFFFFFFFFFFFFFFFFFFFFFFFFFFFFFFFFFFFFFFFF AND DUP2 MSTORE PUSH1 0x20 ADD SWAP1 DUP2 MSTORE PUSH1 0x20 ADD PUSH1 0x0 KECCAK256 PUSH1 0x0 SWAP1 SLOAD SWAP1 PUSH2 0x100 EXP SWAP1 DIV PUSH1 0xFF AND SWAP2 POP POP SWAP3 SWAP2 POP POP JUMP JUMPDEST PUSH1 0x0 DUP1 SHL DUP2 JUMP JUMPDEST PUSH1 0x40 MLOAD DUP1 PUSH1 0x40 ADD PUSH1 0x40 MSTORE DUP1 PUSH1 0x5 DUP2 MSTORE PUSH1 0x20 ADD PUSH32 0x352E302E30000000000000000000000000000000000000000000000000000000 DUP2 MSTORE POP DUP2 JUMP JUMPDEST PUSH1 0x0 PUSH1 0x2 SWAP1 POP SWAP1 JUMP JUMPDEST PUSH2 0x6B8 DUP3 PUSH2 0x4AF JUMP JUMPDEST PUSH2 0x6C1 DUP2 PUSH2 0x96C JUMP JUMPDEST PUSH2 0x6CB DUP4 DUP4 PUSH2 0xA89 JUMP JUMPDEST POP POP POP POP JUMP JUMPDEST PUSH1 0x0 PUSH2 0x6DB PUSH2 0xE45 JUMP JUMPDEST SWAP1 POP PUSH1 0x0 DUP2 PUSH1 0x0 ADD PUSH1 0x8 SWAP1 SLOAD SWAP1 PUSH2 0x100 EXP SWAP1 DIV PUSH1 0xFF AND ISZERO SWAP1 POP PUSH1 0x0 DUP3 PUSH1 0x0 ADD PUSH1 0x0 SWAP1 SLOAD SWAP1 PUSH2 0x100 EXP SWAP1 DIV PUSH8 0xFFFFFFFFFFFFFFFF AND SWAP1 POP PUSH1 0x0 DUP1 DUP3 PUSH8 0xFFFFFFFFFFFFFFFF AND EQ DUP1 ISZERO PUSH2 0x729 JUMPI POP DUP3 JUMPDEST SWAP1 POP PUSH1 0x0 PUSH1 0x1 DUP4 PUSH8 0xFFFFFFFFFFFFFFFF AND EQ DUP1 ISZERO PUSH2 0x75E JUMPI POP PUSH1 0x0 ADDRESS PUSH20 0xFFFFFFFFFFFFFFFFFFFFFFFFFFFFFFFFFFFFFFFF AND EXTCODESIZE EQ JUMPDEST SWAP1 POP DUP2 ISZERO DUP1 ISZERO PUSH2 0x76C JUMPI POP DUP1 ISZERO JUMPDEST ISZERO PUSH2 0x7A3 JUMPI PUSH1 0x40 MLOAD PUSH32 0xF92EE8A900000000000000000000000000000000000000000000000000000000 DUP2 MSTORE PUSH1 0x4 ADD PUSH1 0x40 MLOAD DUP1 SWAP2 SUB SWAP1 REVERT JUMPDEST PUSH1 0x1 DUP6 PUSH1 0x0 ADD PUSH1 0x0 PUSH2 0x100 EXP DUP2 SLOAD DUP2 PUSH8 0xFFFFFFFFFFFFFFFF MUL NOT AND SWAP1 DUP4 PUSH8 0xFFFFFFFFFFFFFFFF AND MUL OR SWAP1 SSTORE POP DUP4 ISZERO PUSH2 0x7F3 JUMPI PUSH1 0x1 DUP6 PUSH1 0x0 ADD PUSH1 0x8 PUSH2 0x100 EXP DUP2 SLOAD DUP2 PUSH1 0xFF MUL NOT AND SWAP1 DUP4 ISZERO ISZERO MUL OR SWAP1 SSTORE POP JUMPDEST PUSH2 0x7FB PUSH2 0xE6D JUMP JUMPDEST DUP7 PUSH1 0x0 DUP2 SWAP1 SSTORE POP PUSH2 0x82C PUSH32 0x55504752414445525F524F4C4500000000000000000000000000000000000000 DUP8 PUSH2 0x980 JUMP JUMPDEST POP DUP4 ISZERO PUSH2 0x889 JUMPI PUSH1 0x0 DUP6 PUSH1 0x0 ADD PUSH1 0x8 PUSH2 0x100 EXP DUP2 SLOAD DUP2 PUSH1 0xFF MUL NOT AND SWAP1 DUP4 ISZERO ISZERO MUL OR SWAP1 SSTORE POP PUSH32 0xC7F505B2F371AE2175EE4913F4499E1F2633A7B5936321EED1CDAEB6115181D2 PUSH1 0x1 PUSH1 0x40 MLOAD PUSH2 0x880 SWAP2 SWAP1 PUSH2 0x18C9 JUMP JUMPDEST PUSH1 0x40 MLOAD DUP1 SWAP2 SUB SWAP1 LOG1 JUMPDEST POP POP POP POP POP POP POP JUMP JUMPDEST PUSH32 0x4F50455241544F525F524F4C4500000000000000000000000000000000000000 DUP2 JUMP JUMPDEST PUSH32 0x55504752414445525F524F4C4500000000000000000000000000000000000000 DUP2 JUMP JUMPDEST PUSH1 0x0 PUSH32 0x1FFC9A700000000000000000000000000000000000000000000000000000000 PUSH28 0xFFFFFFFFFFFFFFFFFFFFFFFFFFFFFFFFFFFFFFFFFFFFFFFFFFFFFFFF NOT AND DUP3 PUSH28 0xFFFFFFFFFFFFFFFFFFFFFFFFFFFFFFFFFFFFFFFFFFFFFFFFFFFFFFFF NOT AND EQ SWAP1 POP SWAP2 SWAP1 POP JUMP JUMPDEST PUSH1 0x0 PUSH32 0x2DD7BC7DEC4DCEEDDA775E58DD541E08A116C6C53815C0BD028192F7B626800 SWAP1 POP SWAP1 JUMP JUMPDEST PUSH2 0x97D DUP2 PUSH2 0x978 PUSH2 0xA81 JUMP JUMPDEST PUSH2 0xE95 JUMP JUMPDEST POP JUMP JUMPDEST PUSH1 0x0 DUP1 PUSH2 0x98B PUSH2 0x944 JUMP JUMPDEST SWAP1 POP PUSH2 0x997 DUP5 DUP5 PUSH2 0x5ED JUMP JUMPDEST PUSH2 0xA75 JUMPI PUSH1 0x1 DUP2 PUSH1 0x0 ADD PUSH1 0x0 DUP7 DUP2 MSTORE PUSH1 0x20 ADD SWAP1 DUP2 MSTORE PUSH1 0x20 ADD PUSH1 0x0 KECCAK256 PUSH1 0x0 ADD PUSH1 0x0 DUP6 PUSH20 0xFFFFFFFFFFFFFFFFFFFFFFFFFFFFFFFFFFFFFFFF AND PUSH20 0xFFFFFFFFFFFFFFFFFFFFFFFFFFFFFFFFFFFFFFFF AND DUP2 MSTORE PUSH1 0x20 ADD SWAP1 DUP2 MSTORE PUSH1 0x20 ADD PUSH1 0x0 KECCAK256 PUSH1 0x0 PUSH2 0x100 EXP DUP2 SLOAD DUP2 PUSH1 0xFF MUL NOT AND SWAP1 DUP4 ISZERO ISZERO MUL OR SWAP1 SSTORE POP PUSH2 0xA11 PUSH2 0xA81 JUMP JUMPDEST PUSH20 0xFFFFFFFFFFFFFFFFFFFFFFFFFFFFFFFFFFFFFFFF AND DUP4 PUSH20 0xFFFFFFFFFFFFFFFFFFFFFFFFFFFFFFFFFFFFFFFF AND DUP6 PUSH32 0x2F8788117E7EFF1D82E926EC794901D17C78024A50270940304540A733656F0D PUSH1 0x40 MLOAD PUSH1 0x40 MLOAD DUP1 SWAP2 SUB SWAP1 LOG4 PUSH1 0x1 SWAP2 POP POP PUSH2 0xA7B JUMP JUMPDEST PUSH1 0x0 SWAP2 POP POP JUMPDEST SWAP3 SWAP2 POP POP JUMP JUMPDEST PUSH1 0x0 CALLER SWAP1 POP SWAP1 JUMP JUMPDEST PUSH1 0x0 DUP1 PUSH2 0xA94 PUSH2 0x944 JUMP JUMPDEST SWAP1 POP PUSH2 0xAA0 DUP5 DUP5 PUSH2 0x5ED JUMP JUMPDEST ISZERO PUSH2 0xB7F JUMPI PUSH1 0x0 DUP2 PUSH1 0x0 ADD PUSH1 0x0 DUP7 DUP2 MSTORE PUSH1 0x20 ADD SWAP1 DUP2 MSTORE PUSH1 0x20 ADD PUSH1 0x0 KECCAK256 PUSH1 0x0 ADD PUSH1 0x0 DUP6 PUSH20 0xFFFFFFFFFFFFFFFFFFFFFFFFFFFFFFFFFFFFFFFF AND PUSH20 0xFFFFFFFFFFFFFFFFFFFFFFFFFFFFFFFFFFFFFFFF AND DUP2 MSTORE PUSH1 0x20 ADD SWAP1 DUP2 MSTORE PUSH1 0x20 ADD PUSH1 0x0 KECCAK256 PUSH1 0x0 PUSH2 0x100 EXP DUP2 SLOAD DUP2 PUSH1 0xFF MUL NOT AND SWAP1 DUP4 ISZERO ISZERO MUL OR SWAP1 SSTORE POP PUSH2 0xB1B PUSH2 0xA81 JUMP JUMPDEST PUSH20 0xFFFFFFFFFFFFFFFFFFFFFFFFFFFFFFFFFFFFFFFF AND DUP4 PUSH20 0xFFFFFFFFFFFFFFFFFFFFFFFFFFFFFFFFFFFFFFFF AND DUP6 PUSH32 0xF6391F5C32D9C69D2A47EA670B442974B53935D1EDC7FD64EB21E047A839171B PUSH1 0x40 MLOAD PUSH1 0x40 MLOAD DUP1 SWAP2 SUB SWAP1 LOG4 PUSH1 0x1 SWAP2 POP POP PUSH2 0xB85 JUMP JUMPDEST PUSH1 0x0 SWAP2 POP POP JUMPDEST SWAP3 SWAP2 POP POP JUMP JUMPDEST PUSH32 0x0 PUSH20 0xFFFFFFFFFFFFFFFFFFFFFFFFFFFFFFFFFFFFFFFF AND ADDRESS PUSH20 0xFFFFFFFFFFFFFFFFFFFFFFFFFFFFFFFFFFFFFFFF AND EQ DUP1 PUSH2 0xC38 JUMPI POP PUSH32 0x0 PUSH20 0xFFFFFFFFFFFFFFFFFFFFFFFFFFFFFFFFFFFFFFFF AND PUSH2 0xC1F PUSH2 0xEE6 JUMP JUMPDEST PUSH20 0xFFFFFFFFFFFFFFFFFFFFFFFFFFFFFFFFFFFFFFFF AND EQ ISZERO JUMPDEST ISZERO PUSH2 0xC6F JUMPI PUSH1 0x40 MLOAD PUSH32 0xE07C8DBA00000000000000000000000000000000000000000000000000000000 DUP2 MSTORE PUSH1 0x4 ADD PUSH1 0x40 MLOAD DUP1 SWAP2 SUB SWAP1 REVERT JUMPDEST JUMP JUMPDEST PUSH32 0x55504752414445525F524F4C4500000000000000000000000000000000000000 PUSH2 0xC9B DUP2 PUSH2 0x96C JUMP JUMPDEST POP POP JUMP JUMPDEST DUP2 PUSH20 0xFFFFFFFFFFFFFFFFFFFFFFFFFFFFFFFFFFFFFFFF AND PUSH4 0x52D1902D PUSH1 0x40 MLOAD DUP2 PUSH4 0xFFFFFFFF AND PUSH1 0xE0 SHL DUP2 MSTORE PUSH1 0x4 ADD PUSH1 0x20 PUSH1 0x40 MLOAD DUP1 DUP4 SUB DUP2 DUP7 GAS STATICCALL SWAP3 POP POP POP DUP1 ISZERO PUSH2 0xD07 JUMPI POP PUSH1 0x40 MLOAD RETURNDATASIZE PUSH1 0x1F NOT PUSH1 0x1F DUP3 ADD AND DUP3 ADD DUP1 PUSH1 0x40 MSTORE POP DUP2 ADD SWAP1 PUSH2 0xD04 SWAP2 SWAP1 PUSH2 0x18F9 JUMP JUMPDEST PUSH1 0x1 JUMPDEST PUSH2 0xD48 JUMPI DUP2 PUSH1 0x40 MLOAD PUSH32 0x4C9C8CE300000000000000000000000000000000000000000000000000000000 DUP2 MSTORE PUSH1 0x4 ADD PUSH2 0xD3F SWAP2 SWAP1 PUSH2 0x1935 JUMP JUMPDEST PUSH1 0x40 MLOAD DUP1 SWAP2 SUB SWAP1 REVERT JUMPDEST PUSH32 0x360894A13BA1A3210667C828492DB98DCA3E2076CC3735A920A3CA505D382BBC PUSH1 0x0 SHL DUP2 EQ PUSH2 0xDAF JUMPI DUP1 PUSH1 0x40 MLOAD PUSH32 0xAA1D49A400000000000000000000000000000000000000000000000000000000 DUP2 MSTORE PUSH1 0x4 ADD PUSH2 0xDA6 SWAP2 SWAP1 PUSH2 0x13D1 JUMP JUMPDEST PUSH1 0x40 MLOAD DUP1 SWAP2 SUB SWAP1 REVERT JUMPDEST PUSH2 0xDB9 DUP4 DUP4 PUSH2 0xF3D JUMP JUMPDEST POP POP POP JUMP JUMPDEST PUSH32 0x0 PUSH20 0xFFFFFFFFFFFFFFFFFFFFFFFFFFFFFFFFFFFFFFFF AND ADDRESS PUSH20 0xFFFFFFFFFFFFFFFFFFFFFFFFFFFFFFFFFFFFFFFF AND EQ PUSH2 0xE43 JUMPI PUSH1 0x40 MLOAD PUSH32 0xE07C8DBA00000000000000000000000000000000000000000000000000000000 DUP2 MSTORE PUSH1 0x4 ADD PUSH1 0x40 MLOAD DUP1 SWAP2 SUB SWAP1 REVERT JUMPDEST JUMP JUMPDEST PUSH1 0x0 PUSH32 0xF0C57E16840DF040F15088DC2F81FE391C3923BEC73E23A9662EFC9C229C6A00 SWAP1 POP SWAP1 JUMP JUMPDEST PUSH2 0xE75 PUSH2 0xFB0 JUMP JUMPDEST PUSH2 0xE7D PUSH2 0xFF0 JUMP JUMPDEST PUSH2 0xE85 PUSH2 0xFFA JUMP JUMPDEST PUSH2 0xE92 PUSH1 0x0 DUP1 SHL CALLER PUSH2 0x980 JUMP JUMPDEST POP JUMP JUMPDEST PUSH2 0xE9F DUP3 DUP3 PUSH2 0x5ED JUMP JUMPDEST PUSH2 0xEE2 JUMPI DUP1 DUP3 PUSH1 0x40 MLOAD PUSH32 0xE2517D3F00000000000000000000000000000000000000000000000000000000 DUP2 MSTORE PUSH1 0x4 ADD PUSH2 0xED9 SWAP3 SWAP2 SWAP1 PUSH2 0x1950 JUMP JUMPDEST PUSH1 0x40 MLOAD DUP1 SWAP2 SUB SWAP1 REVERT JUMPDEST POP POP JUMP JUMPDEST PUSH1 0x0 PUSH2 0xF14 PUSH32 0x360894A13BA1A3210667C828492DB98DCA3E2076CC3735A920A3CA505D382BBC PUSH1 0x0 SHL PUSH2 0x1004 JUMP JUMPDEST PUSH1 0x0 ADD PUSH1 0x0 SWAP1 SLOAD SWAP1 PUSH2 0x100 EXP SWAP1 DIV PUSH20 0xFFFFFFFFFFFFFFFFFFFFFFFFFFFFFFFFFFFFFFFF AND SWAP1 POP SWAP1 JUMP JUMPDEST PUSH2 0xF46 DUP3 PUSH2 0x100E JUMP JUMPDEST DUP2 PUSH20 0xFFFFFFFFFFFFFFFFFFFFFFFFFFFFFFFFFFFFFFFF AND PUSH32 0xBC7CD75A20EE27FD9ADEBAB32041F755214DBC6BFFA90CC0225B39DA2E5C2D3B PUSH1 0x40 MLOAD PUSH1 0x40 MLOAD DUP1 SWAP2 SUB SWAP1 LOG2 PUSH1 0x0 DUP2 MLOAD GT ISZERO PUSH2 0xFA3 JUMPI PUSH2 0xF9D DUP3 DUP3 PUSH2 0x10DB JUMP JUMPDEST POP PUSH2 0xFAC JUMP JUMPDEST PUSH2 0xFAB PUSH2 0x115F JUMP JUMPDEST JUMPDEST POP POP JUMP JUMPDEST PUSH2 0xFB8 PUSH2 0x119C JUMP JUMPDEST PUSH2 0xFEE JUMPI PUSH1 0x40 MLOAD PUSH32 0xD7E6BCF800000000000000000000000000000000000000000000000000000000 DUP2 MSTORE PUSH1 0x4 ADD PUSH1 0x40 MLOAD DUP1 SWAP2 SUB SWAP1 REVERT JUMPDEST JUMP JUMPDEST PUSH2 0xFF8 PUSH2 0xFB0 JUMP JUMPDEST JUMP JUMPDEST PUSH2 0x1002 PUSH2 0xFB0 JUMP JUMPDEST JUMP JUMPDEST PUSH1 0x0 DUP2 SWAP1 POP SWAP2 SWAP1 POP JUMP JUMPDEST PUSH1 0x0 DUP2 PUSH20 0xFFFFFFFFFFFFFFFFFFFFFFFFFFFFFFFFFFFFFFFF AND EXTCODESIZE SUB PUSH2 0x106A JUMPI DUP1 PUSH1 0x40 MLOAD PUSH32 0x4C9C8CE300000000000000000000000000000000000000000000000000000000 DUP2 MSTORE PUSH1 0x4 ADD PUSH2 0x1061 SWAP2 SWAP1 PUSH2 0x1935 JUMP JUMPDEST PUSH1 0x40 MLOAD DUP1 SWAP2 SUB SWAP1 REVERT JUMPDEST DUP1 PUSH2 0x1097 PUSH32 0x360894A13BA1A3210667C828492DB98DCA3E2076CC3735A920A3CA505D382BBC PUSH1 0x0 SHL PUSH2 0x1004 JUMP JUMPDEST PUSH1 0x0 ADD PUSH1 0x0 PUSH2 0x100 EXP DUP2 SLOAD DUP2 PUSH20 0xFFFFFFFFFFFFFFFFFFFFFFFFFFFFFFFFFFFFFFFF MUL NOT AND SWAP1 DUP4 PUSH20 0xFFFFFFFFFFFFFFFFFFFFFFFFFFFFFFFFFFFFFFFF AND MUL OR SWAP1 SSTORE POP POP JUMP JUMPDEST PUSH1 0x60 PUSH1 0x0 DUP1 DUP5 PUSH20 0xFFFFFFFFFFFFFFFFFFFFFFFFFFFFFFFFFFFFFFFF AND DUP5 PUSH1 0x40 MLOAD PUSH2 0x1105 SWAP2 SWAP1 PUSH2 0x19C0 JUMP JUMPDEST PUSH1 0x0 PUSH1 0x40 MLOAD DUP1 DUP4 SUB DUP2 DUP6 GAS DELEGATECALL SWAP2 POP POP RETURNDATASIZE DUP1 PUSH1 0x0 DUP2 EQ PUSH2 0x1140 JUMPI PUSH1 0x40 MLOAD SWAP2 POP PUSH1 0x1F NOT PUSH1 0x3F RETURNDATASIZE ADD AND DUP3 ADD PUSH1 0x40 MSTORE RETURNDATASIZE DUP3 MSTORE RETURNDATASIZE PUSH1 0x0 PUSH1 0x20 DUP5 ADD RETURNDATACOPY PUSH2 0x1145 JUMP JUMPDEST PUSH1 0x60 SWAP2 POP JUMPDEST POP SWAP2 POP SWAP2 POP PUSH2 0x1155 DUP6 DUP4 DUP4 PUSH2 0x11BC JUMP JUMPDEST SWAP3 POP POP POP SWAP3 SWAP2 POP POP JUMP JUMPDEST PUSH1 0x0 CALLVALUE GT ISZERO PUSH2 0x119A JUMPI PUSH1 0x40 MLOAD PUSH32 0xB398979F00000000000000000000000000000000000000000000000000000000 DUP2 MSTORE PUSH1 0x4 ADD PUSH1 0x40 MLOAD DUP1 SWAP2 SUB SWAP1 REVERT JUMPDEST JUMP JUMPDEST PUSH1 0x0 PUSH2 0x11A6 PUSH2 0xE45 JUMP JUMPDEST PUSH1 0x0 ADD PUSH1 0x8 SWAP1 SLOAD SWAP1 PUSH2 0x100 EXP SWAP1 DIV PUSH1 0xFF AND SWAP1 POP SWAP1 JUMP JUMPDEST PUSH1 0x60 DUP3 PUSH2 0x11D1 JUMPI PUSH2 0x11CC DUP3 PUSH2 0x124B JUMP JUMPDEST PUSH2 0x1243 JUMP JUMPDEST PUSH1 0x0 DUP3 MLOAD EQ DUP1 ISZERO PUSH2 0x11F9 JUMPI POP PUSH1 0x0 DUP5 PUSH20 0xFFFFFFFFFFFFFFFFFFFFFFFFFFFFFFFFFFFFFFFF AND EXTCODESIZE EQ JUMPDEST ISZERO PUSH2 0x123B JUMPI DUP4 PUSH1 0x40 MLOAD PUSH32 0x9996B31500000000000000000000000000000000000000000000000000000000 DUP2 MSTORE PUSH1 0x4 ADD PUSH2 0x1232 SWAP2 SWAP1 PUSH2 0x1935 JUMP JUMPDEST PUSH1 0x40 MLOAD DUP1 SWAP2 SUB SWAP1 REVERT JUMPDEST DUP2 SWAP1 POP PUSH2 0x1244 JUMP JUMPDEST JUMPDEST SWAP4 SWAP3 POP POP POP JUMP JUMPDEST PUSH1 0x0 DUP2 MLOAD GT ISZERO PUSH2 0x125E JUMPI DUP1 MLOAD DUP1 DUP3 PUSH1 0x20 ADD REVERT JUMPDEST PUSH1 0x40 MLOAD PUSH32 0x1425EA4200000000000000000000000000000000000000000000000000000000 DUP2 MSTORE PUSH1 0x4 ADD PUSH1 0x40 MLOAD DUP1 SWAP2 SUB SWAP1 REVERT JUMPDEST PUSH1 0x0 PUSH1 0x40 MLOAD SWAP1 POP SWAP1 JUMP JUMPDEST PUSH1 0x0 DUP1 REVERT JUMPDEST PUSH1 0x0 DUP1 REVERT JUMPDEST PUSH1 0x0 PUSH32 0xFFFFFFFF00000000000000000000000000000000000000000000000000000000 DUP3 AND SWAP1 POP SWAP2 SWAP1 POP JUMP JUMPDEST PUSH2 0x12D9 DUP2 PUSH2 0x12A4 JUMP JUMPDEST DUP2 EQ PUSH2 0x12E4 JUMPI PUSH1 0x0 DUP1 REVERT JUMPDEST POP JUMP JUMPDEST PUSH1 0x0 DUP2 CALLDATALOAD SWAP1 POP PUSH2 0x12F6 DUP2 PUSH2 0x12D0 JUMP JUMPDEST SWAP3 SWAP2 POP POP JUMP JUMPDEST PUSH1 0x0 PUSH1 0x20 DUP3 DUP5 SUB SLT ISZERO PUSH2 0x1312 JUMPI PUSH2 0x1311 PUSH2 0x129A JUMP JUMPDEST JUMPDEST PUSH1 0x0 PUSH2 0x1320 DUP5 DUP3 DUP6 ADD PUSH2 0x12E7 JUMP JUMPDEST SWAP2 POP POP SWAP3 SWAP2 POP POP JUMP JUMPDEST PUSH1 0x0 DUP2 ISZERO ISZERO SWAP1 POP SWAP2 SWAP1 POP JUMP JUMPDEST PUSH2 0x133E DUP2 PUSH2 0x1329 JUMP JUMPDEST DUP3 MSTORE POP POP JUMP JUMPDEST PUSH1 0x0 PUSH1 0x20 DUP3 ADD SWAP1 POP PUSH2 0x1359 PUSH1 0x0 DUP4 ADD DUP5 PUSH2 0x1335 JUMP JUMPDEST SWAP3 SWAP2 POP POP JUMP JUMPDEST PUSH1 0x0 DUP2 SWAP1 POP SWAP2 SWAP1 POP JUMP JUMPDEST PUSH2 0x1372 DUP2 PUSH2 0x135F JUMP JUMPDEST DUP2 EQ PUSH2 0x137D JUMPI PUSH1 0x0 DUP1 REVERT JUMPDEST POP JUMP JUMPDEST PUSH1 0x0 DUP2 CALLDATALOAD SWAP1 POP PUSH2 0x138F DUP2 PUSH2 0x1369 JUMP JUMPDEST SWAP3 SWAP2 POP POP JUMP JUMPDEST PUSH1 0x0 PUSH1 0x20 DUP3 DUP5 SUB SLT ISZERO PUSH2 0x13AB JUMPI PUSH2 0x13AA PUSH2 0x129A JUMP JUMPDEST JUMPDEST PUSH1 0x0 PUSH2 0x13B9 DUP5 DUP3 DUP6 ADD PUSH2 0x1380 JUMP JUMPDEST SWAP2 POP POP SWAP3 SWAP2 POP POP JUMP JUMPDEST PUSH2 0x13CB DUP2 PUSH2 0x135F JUMP JUMPDEST DUP3 MSTORE POP POP JUMP JUMPDEST PUSH1 0x0 PUSH1 0x20 DUP3 ADD SWAP1 POP PUSH2 0x13E6 PUSH1 0x0 DUP4 ADD DUP5 PUSH2 0x13C2 JUMP JUMPDEST SWAP3 SWAP2 POP POP JUMP JUMPDEST PUSH1 0x0 PUSH20 0xFFFFFFFFFFFFFFFFFFFFFFFFFFFFFFFFFFFFFFFF DUP3 AND SWAP1 POP SWAP2 SWAP1 POP JUMP JUMPDEST PUSH1 0x0 PUSH2 0x1417 DUP3 PUSH2 0x13EC JUMP JUMPDEST SWAP1 POP SWAP2 SWAP1 POP JUMP JUMPDEST PUSH2 0x1427 DUP2 PUSH2 0x140C JUMP JUMPDEST DUP2 EQ PUSH2 0x1432 JUMPI PUSH1 0x0 DUP1 REVERT JUMPDEST POP JUMP JUMPDEST PUSH1 0x0 DUP2 CALLDATALOAD SWAP1 POP PUSH2 0x1444 DUP2 PUSH2 0x141E JUMP JUMPDEST SWAP3 SWAP2 POP POP JUMP JUMPDEST PUSH1 0x0 DUP1 PUSH1 0x40 DUP4 DUP6 SUB SLT ISZERO PUSH2 0x1461 JUMPI PUSH2 0x1460 PUSH2 0x129A JUMP JUMPDEST JUMPDEST PUSH1 0x0 PUSH2 0x146F DUP6 DUP3 DUP7 ADD PUSH2 0x1380 JUMP JUMPDEST SWAP3 POP POP PUSH1 0x20 PUSH2 0x1480 DUP6 DUP3 DUP7 ADD PUSH2 0x1435 JUMP JUMPDEST SWAP2 POP POP SWAP3 POP SWAP3 SWAP1 POP JUMP JUMPDEST PUSH1 0x0 DUP1 REVERT JUMPDEST PUSH1 0x0 DUP1 REVERT JUMPDEST PUSH1 0x0 PUSH1 0x1F NOT PUSH1 0x1F DUP4 ADD AND SWAP1 POP SWAP2 SWAP1 POP JUMP JUMPDEST PUSH32 0x4E487B7100000000000000000000000000000000000000000000000000000000 PUSH1 0x0 MSTORE PUSH1 0x41 PUSH1 0x4 MSTORE PUSH1 0x24 PUSH1 0x0 REVERT JUMPDEST PUSH2 0x14DD DUP3 PUSH2 0x1494 JUMP JUMPDEST DUP2 ADD DUP2 DUP2 LT PUSH8 0xFFFFFFFFFFFFFFFF DUP3 GT OR ISZERO PUSH2 0x14FC JUMPI PUSH2 0x14FB PUSH2 0x14A5 JUMP JUMPDEST JUMPDEST DUP1 PUSH1 0x40 MSTORE POP POP POP JUMP JUMPDEST PUSH1 0x0 PUSH2 0x150F PUSH2 0x1290 JUMP JUMPDEST SWAP1 POP PUSH2 0x151B DUP3 DUP3 PUSH2 0x14D4 JUMP JUMPDEST SWAP2 SWAP1 POP JUMP JUMPDEST PUSH1 0x0 PUSH8 0xFFFFFFFFFFFFFFFF DUP3 GT ISZERO PUSH2 0x153B JUMPI PUSH2 0x153A PUSH2 0x14A5 JUMP JUMPDEST JUMPDEST PUSH2 0x1544 DUP3 PUSH2 0x1494 JUMP JUMPDEST SWAP1 POP PUSH1 0x20 DUP2 ADD SWAP1 POP SWAP2 SWAP1 POP JUMP JUMPDEST DUP3 DUP2 DUP4 CALLDATACOPY PUSH1 0x0 DUP4 DUP4 ADD MSTORE POP POP POP JUMP JUMPDEST PUSH1 0x0 PUSH2 0x1573 PUSH2 0x156E DUP5 PUSH2 0x1520 JUMP JUMPDEST PUSH2 0x1505 JUMP JUMPDEST SWAP1 POP DUP3 DUP2 MSTORE PUSH1 0x20 DUP2 ADD DUP5 DUP5 DUP5 ADD GT ISZERO PUSH2 0x158F JUMPI PUSH2 0x158E PUSH2 0x148F JUMP JUMPDEST JUMPDEST PUSH2 0x159A DUP5 DUP3 DUP6 PUSH2 0x1551 JUMP JUMPDEST POP SWAP4 SWAP3 POP POP POP JUMP JUMPDEST PUSH1 0x0 DUP3 PUSH1 0x1F DUP4 ADD SLT PUSH2 0x15B7 JUMPI PUSH2 0x15B6 PUSH2 0x148A JUMP JUMPDEST JUMPDEST DUP2 CALLDATALOAD PUSH2 0x15C7 DUP5 DUP3 PUSH1 0x20 DUP7 ADD PUSH2 0x1560 JUMP JUMPDEST SWAP2 POP POP SWAP3 SWAP2 POP POP JUMP JUMPDEST PUSH1 0x0 DUP1 PUSH1 0x40 DUP4 DUP6 SUB SLT ISZERO PUSH2 0x15E7 JUMPI PUSH2 0x15E6 PUSH2 0x129A JUMP JUMPDEST JUMPDEST PUSH1 0x0 PUSH2 0x15F5 DUP6 DUP3 DUP7 ADD PUSH2 0x1435 JUMP JUMPDEST SWAP3 POP POP PUSH1 0x20 DUP4 ADD CALLDATALOAD PUSH8 0xFFFFFFFFFFFFFFFF DUP2 GT ISZERO PUSH2 0x1616 JUMPI PUSH2 0x1615 PUSH2 0x129F JUMP JUMPDEST JUMPDEST PUSH2 0x1622 DUP6 DUP3 DUP7 ADD PUSH2 0x15A2 JUMP JUMPDEST SWAP2 POP POP SWAP3 POP SWAP3 SWAP1 POP JUMP JUMPDEST PUSH1 0x0 DUP2 SWAP1 POP SWAP2 SWAP1 POP JUMP JUMPDEST PUSH2 0x163F DUP2 PUSH2 0x162C JUMP JUMPDEST DUP3 MSTORE POP POP JUMP JUMPDEST PUSH1 0x0 PUSH1 0x20 DUP3 ADD SWAP1 POP PUSH2 0x165A PUSH1 0x0 DUP4 ADD DUP5 PUSH2 0x1636 JUMP JUMPDEST SWAP3 SWAP2 POP POP JUMP JUMPDEST PUSH1 0x0 DUP2 MLOAD SWAP1 POP SWAP2 SWAP1 POP JUMP JUMPDEST PUSH1 0x0 DUP3 DUP3 MSTORE PUSH1 0x20 DUP3 ADD SWAP1 POP SWAP3 SWAP2 POP POP JUMP JUMPDEST PUSH1 0x0 JUMPDEST DUP4 DUP2 LT ISZERO PUSH2 0x169A JUMPI DUP1 DUP3 ADD MLOAD DUP2 DUP5 ADD MSTORE PUSH1 0x20 DUP2 ADD SWAP1 POP PUSH2 0x167F JUMP JUMPDEST PUSH1 0x0 DUP5 DUP5 ADD MSTORE POP POP POP POP JUMP JUMPDEST PUSH1 0x0 PUSH2 0x16B1 DUP3 PUSH2 0x1660 JUMP JUMPDEST PUSH2 0x16BB DUP2 DUP6 PUSH2 0x166B JUMP JUMPDEST SWAP4 POP PUSH2 0x16CB DUP2 DUP6 PUSH1 0x20 DUP7 ADD PUSH2 0x167C JUMP JUMPDEST PUSH2 0x16D4 DUP2 PUSH2 0x1494 JUMP JUMPDEST DUP5 ADD SWAP2 POP POP SWAP3 SWAP2 POP POP JUMP JUMPDEST PUSH1 0x0 PUSH1 0x20 DUP3 ADD SWAP1 POP DUP2 DUP2 SUB PUSH1 0x0 DUP4 ADD MSTORE PUSH2 0x16F9 DUP2 DUP5 PUSH2 0x16A6 JUMP JUMPDEST SWAP1 POP SWAP3 SWAP2 POP POP JUMP JUMPDEST PUSH2 0x170A DUP2 PUSH2 0x162C JUMP JUMPDEST DUP2 EQ PUSH2 0x1715 JUMPI PUSH1 0x0 DUP1 REVERT JUMPDEST POP JUMP JUMPDEST PUSH1 0x0 DUP2 CALLDATALOAD SWAP1 POP PUSH2 0x1727 DUP2 PUSH2 0x1701 JUMP JUMPDEST SWAP3 SWAP2 POP POP JUMP JUMPDEST PUSH1 0x0 DUP1 PUSH1 0x40 DUP4 DUP6 SUB SLT ISZERO PUSH2 0x1744 JUMPI PUSH2 0x1743 PUSH2 0x129A JUMP JUMPDEST JUMPDEST PUSH1 0x0 PUSH2 0x1752 DUP6 DUP3 DUP7 ADD PUSH2 0x1718 JUMP JUMPDEST SWAP3 POP POP PUSH1 0x20 PUSH2 0x1763 DUP6 DUP3 DUP7 ADD PUSH2 0x1435 JUMP JUMPDEST SWAP2 POP POP SWAP3 POP SWAP3 SWAP1 POP JUMP JUMPDEST PUSH32 0x4E6F7468696E6720696E73696465000000000000000000000000000000000000 PUSH1 0x0 DUP3 ADD MSTORE POP JUMP JUMPDEST PUSH1 0x0 PUSH2 0x17A3 PUSH1 0xE DUP4 PUSH2 0x166B JUMP JUMPDEST SWAP2 POP PUSH2 0x17AE DUP3 PUSH2 0x176D JUMP JUMPDEST PUSH1 0x20 DUP3 ADD SWAP1 POP SWAP2 SWAP1 POP JUMP JUMPDEST PUSH1 0x0 PUSH1 0x20 DUP3 ADD SWAP1 POP DUP2 DUP2 SUB PUSH1 0x0 DUP4 ADD MSTORE PUSH2 0x17D2 DUP2 PUSH2 0x1796 JUMP JUMPDEST SWAP1 POP SWAP2 SWAP1 POP JUMP JUMPDEST PUSH32 0x4E487B7100000000000000000000000000000000000000000000000000000000 PUSH1 0x0 MSTORE PUSH1 0x11 PUSH1 0x4 MSTORE PUSH1 0x24 PUSH1 0x0 REVERT JUMPDEST PUSH1 0x0 PUSH2 0x1813 DUP3 PUSH2 0x162C JUMP JUMPDEST SWAP2 POP PUSH2 0x181E DUP4 PUSH2 0x162C JUMP JUMPDEST SWAP3 POP DUP3 DUP3 SUB SWAP1 POP DUP2 DUP2 GT ISZERO PUSH2 0x1836 JUMPI PUSH2 0x1835 PUSH2 0x17D9 JUMP JUMPDEST JUMPDEST SWAP3 SWAP2 POP POP JUMP JUMPDEST PUSH1 0x0 PUSH2 0x1847 DUP3 PUSH2 0x162C JUMP JUMPDEST SWAP2 POP PUSH2 0x1852 DUP4 PUSH2 0x162C JUMP JUMPDEST SWAP3 POP DUP3 DUP3 ADD SWAP1 POP DUP1 DUP3 GT ISZERO PUSH2 0x186A JUMPI PUSH2 0x1869 PUSH2 0x17D9 JUMP JUMPDEST JUMPDEST SWAP3 SWAP2 POP POP JUMP JUMPDEST PUSH1 0x0 DUP2 SWAP1 POP SWAP2 SWAP1 POP JUMP JUMPDEST PUSH1 0x0 PUSH8 0xFFFFFFFFFFFFFFFF DUP3 AND SWAP1 POP SWAP2 SWAP1 POP JUMP JUMPDEST PUSH1 0x0 DUP2 SWAP1 POP SWAP2 SWAP1 POP JUMP JUMPDEST PUSH1 0x0 PUSH2 0x18B3 PUSH2 0x18AE PUSH2 0x18A9 DUP5 PUSH2 0x1870 JUMP JUMPDEST PUSH2 0x188E JUMP JUMPDEST PUSH2 0x187A JUMP JUMPDEST SWAP1 POP SWAP2 SWAP1 POP JUMP JUMPDEST PUSH2 0x18C3 DUP2 PUSH2 0x1898 JUMP JUMPDEST DUP3 MSTORE POP POP JUMP JUMPDEST PUSH1 0x0 PUSH1 0x20 DUP3 ADD SWAP1 POP PUSH2 0x18DE PUSH1 0x0 DUP4 ADD DUP5 PUSH2 0x18BA JUMP JUMPDEST SWAP3 SWAP2 POP POP JUMP JUMPDEST PUSH1 0x0 DUP2 MLOAD SWAP1 POP PUSH2 0x18F3 DUP2 PUSH2 0x1369 JUMP JUMPDEST SWAP3 SWAP2 POP POP JUMP JUMPDEST PUSH1 0x0 PUSH1 0x20 DUP3 DUP5 SUB SLT ISZERO PUSH2 0x190F JUMPI PUSH2 0x190E PUSH2 0x129A JUMP JUMPDEST JUMPDEST PUSH1 0x0 PUSH2 0x191D DUP5 DUP3 DUP6 ADD PUSH2 0x18E4 JUMP JUMPDEST SWAP2 POP POP SWAP3 SWAP2 POP POP JUMP JUMPDEST PUSH2 0x192F DUP2 PUSH2 0x140C JUMP JUMPDEST DUP3 MSTORE POP POP JUMP JUMPDEST PUSH1 0x0 PUSH1 0x20 DUP3 ADD SWAP1 POP PUSH2 0x194A PUSH1 0x0 DUP4 ADD DUP5 PUSH2 0x1926 JUMP JUMPDEST SWAP3 SWAP2 POP POP JUMP JUMPDEST PUSH1 0x0 PUSH1 0x40 DUP3 ADD SWAP1 POP PUSH2 0x1965 PUSH1 0x0 DUP4 ADD DUP6 PUSH2 0x1926 JUMP JUMPDEST PUSH2 0x1972 PUSH1 0x20 DUP4 ADD DUP5 PUSH2 0x13C2 JUMP JUMPDEST SWAP4 SWAP3 POP POP POP JUMP JUMPDEST PUSH1 0x0 DUP2 MLOAD SWAP1 POP SWAP2 SWAP1 POP JUMP JUMPDEST PUSH1 0x0 DUP2 SWAP1 POP SWAP3 SWAP2 POP POP JUMP JUMPDEST PUSH1 0x0 PUSH2 0x199A DUP3 PUSH2 0x1979 JUMP JUMPDEST PUSH2 0x19A4 DUP2 DUP6 PUSH2 0x1984 JUMP JUMPDEST SWAP4 POP PUSH2 0x19B4 DUP2 DUP6 PUSH1 0x20 DUP7 ADD PUSH2 0x167C JUMP JUMPDEST DUP1 DUP5 ADD SWAP2 POP POP SWAP3 SWAP2 POP POP JUMP JUMPDEST PUSH1 0x0 PUSH2 0x19CC DUP3 DUP5 PUSH2 0x198F JUMP JUMPDEST SWAP2 POP DUP2 SWAP1 POP SWAP3 SWAP2 POP POP JUMP INVALID LOG2 PUSH5 0x6970667358 0x22 SLT KECCAK256 PUSH8 0xFA2C6008F8A0AA1B 0xF9 0xED OR 0x2E 0x4A 0x23 KECCAK256 DUP7 SWAP16 PUSH29 0xBB89B67DC06E084366AA28B94164736F6C634300081400330000000000 "},"methodIdentifiers":{"DEFAULT_ADMIN_ROLE()":"a217fddf","OPERATOR_ROLE()":"f5b541a6","UPGRADER_ROLE()":"f72c0d8b","UPGRADE_INTERFACE_VERSION()":"ad3cb1cc","addObject()":"62029d2a","boxVersion()":"c4df490e","getRoleAdmin(bytes32)":"248a9ca3","grantRole(bytes32,address)":"2f2ff15d","hasRole(bytes32,address)":"91d14854","initialize(uint256,address)":"da35a26f","numberOfObjects()":"658504d1","proxiableUUID()":"52d1902d","removeObject()":"2102ffaa","renounceRole(bytes32,address)":"36568abe","revokeRole(bytes32,address)":"d547741f","supportsInterface(bytes4)":"01ffc9a7","upgradeToAndCall(address,bytes)":"4f1ef286"}},"storageLayout":{"storage":[{"astId":1675,"contract":"contracts/BoxV2.sol:BoxV2","label":"numberOfObjects","offset":0,"slot":"0","type":"t_uint256"}],"types":{"t_uint256":{"encoding":"inplace","label":"uint256","numberOfBytes":"32"}}}}}}