{
  "_format": "hh-sol-artifact-1",
  "contractName": "Box",
  "sourceName": "contracts/Box.sol",
  "abi": [
    {
      "inputs": [],
      "name": "AccessControlBadConfirmation",
      "type": "error"
    },
    {
      "inputs": [
        {
          "internalType": "address",
          "name": "account",
          "type": "address"
        },
        {
          "internalType": "bytes32",
          "name": "neededRole",
          "type": "bytes32"
        }
      ],
      "name": "AccessControlUnauthorizedAccount",
      "type": "error"
    },
    {
      "inputs": [
        {
          "internalType": "address",
          "name": "target",
          "type": "address"
        }
      ],
      "name": "AddressEmptyCode",
      "type": "error"
    },
    {
      "inputs": [
        {
          "internalType": "address",
          "name": "implementation",
          "type": "address"
        }
      ],
      "name": "ERC1967InvalidImplementation",
      "type": "error"
    },
    {
      "inputs": [],
      "name": "ERC1967NonPayable",
      "type": "error"
    },
    {
      "inputs": [],
      "name": "FailedInnerCall",
      "type": "error"
    },
    {
      "inputs": [],
      "name": "InvalidInitialization",
      "type": "error"
    },
    {
      "inputs": [],
      "name": "NotInitializing",
      "type": "error"
    },
    {
      "inputs": [],
      "name": "UUPSUnauthorizedCallContext",
      "type": "error"
    },
    {
      "inputs": [
        {
          "internalType": "bytes32",
          "name": "slot",
          "type": "bytes32"
        }
      ],
      "name": "UUPSUnsupportedProxiableUUID",
      "type": "error"
    },
    {
      "anonymous": false,
      "inputs": [
        {
          "indexed": false,
          "internalType": "uint64",
          "name": "version",
          "type": "uint64"
        }
      ],
      "name": "Initialized",
      "type": "event"
    },
    {
      "anonymous": false,
      "inputs": [
        {
          "indexed": true,
          "internalType": "bytes32",
          "name": "role",
          "type": "bytes32"
        },
        {
          "indexed": true,
          "internalType": "bytes32",
          "name": "previousAdminRole",
          "type": "bytes32"
        },
        {
          "indexed": true,
          "internalType": "bytes32",
          "name": "newAdminRole",
          "type": "bytes32"
        }
      ],
      "name": "RoleAdminChanged",
      "type": "event"
    },
    {
      "anonymous": false,
      "inputs": [
        {
          "indexed": true,
          "internalType": "bytes32",
          "name": "role",
          "type": "bytes32"
        },
        {
          "indexed": true,
          "internalType": "address",
          "name": "account",
          "type": "address"
        },
        {
          "indexed": true,
          "internalType": "address",
          "name": "sender",
          "type": "address"
        }
      ],
      "name": "RoleGranted",
      "type": "event"
    },
    {
      "anonymous": false,
      "inputs": [
        {
          "indexed": true,
          "internalType": "bytes32",
          "name": "role",
          "type": "bytes32"
        },
        {
          "indexed": true,
          "internalType": "address",
          "name": "account",
          "type": "address"
        },
        {
          "indexed": true,
          "internalType": "address",
          "name": "sender",
          "type": "address"
        }
      ],
      "name": "RoleRevoked",
      "type": "event"
    },
    {
      "anonymous": false,
      "inputs": [
        {
          "indexed": true,
          "internalType": "address",
          "name": "implementation",
          "type": "address"
        }
      ],
      "name": "Upgraded",
      "type": "event"
    },
    {
      "inputs": [],
      "name": "DEFAULT_ADMIN_ROLE",
      "outputs": [
        {
          "internalType": "bytes32",
          "name": "",
          "type": "bytes32"
        }
      ],
      "stateMutability": "view",
      "type": "function"
    },
    {
      "inputs": [],
      "name": "OPERATOR_ROLE",
      "outputs": [
        {
          "internalType": "bytes32",
          "name": "",
          "type": "bytes32"
        }
      ],
      "stateMutability": "view",
      "type": "function"
    },
    {
      "inputs": [],
      "name": "UPGRADER_ROLE",
      "outputs": [
        {
          "internalType": "bytes32",
          "name": "",
          "type": "bytes32"
        }
      ],
      "stateMutability": "view",
      "type": "function"
    },
    {
      "inputs": [],
      "name": "UPGRADE_INTERFACE_VERSION",
      "outputs": [
        {
          "internalType": "string",
          "name": "",
          "type": "string"
        }
      ],
      "stateMutability": "view",
      "type": "function"
    },
    {
      "inputs": [
        {
          "internalType": "bytes32",
          "name": "role",
          "type": "bytes32"
        }
      ],
      "name": "getRoleAdmin",
      "outputs": [
        {
          "internalType": "bytes32",
          "name": "",
          "type": "bytes32"
        }
      ],
      "stateMutability": "view",
      "type": "function"
    },
    {
      "inputs": [
        {
          "internalType": "bytes32",
          "name": "role",
          "type": "bytes32"
        },
        {
          "internalType": "address",
          "name": "account",
          "type": "address"
        }
      ],
      "name": "grantRole",
      "outputs": [],
      "stateMutability": "nonpayable",
      "type": "function"
    },
    {
      "inputs": [
        {
          "internalType": "bytes32",
          "name": "role",
          "type": "bytes32"
        },
        {
          "internalType": "address",
          "name": "account",
          "type": "address"
        }
      ],
      "name": "hasRole",
      "outputs": [
        {
          "internalType": "bool",
          "name": "",
          "type": "bool"
        }
      ],
      "stateMutability": "view",
      "type": "function"
    },
    {
      "inputs": [
        {
          "internalType": "uint256",
          "name": "objects",
          "type": "uint256"
        },
        {
          "internalType": "address",
          "name": "multisig",
          "type": "address"
        }
      ],
      "name": "initialize",
      "outputs": [],
      "stateMutability": "nonpayable",
      "type": "function"
    },
    {
      "inputs": [],
      "name": "numberOfObjects",
      "outputs": [
        {
          "internalType": "uint256",
          "name": "",
          "type": "uint256"
        }
      ],
      "stateMutability": "view",
      "type": "function"
    },
    {
      "inputs": [],
      "name": "proxiableUUID",
      "outputs": [
        {
          "internalType": "bytes32",
          "name": "",
          "type": "bytes32"
        }
      ],
      "stateMutability": "view",
      "type": "function"
    },
    {
      "inputs": [],
      "name": "removeObject",
      "outputs": [],
      "stateMutability": "nonpayable",
      "type": "function"
    },
    {
      "inputs": [
        {
          "internalType": "bytes32",
          "name": "role",
          "type": "bytes32"
        },
        {
          "internalType": "address",
          "name": "callerConfirmation",
          "type": "address"
        }
      ],
      "name": "renounceRole",
      "outputs": [],
      "stateMutability": "nonpayable",
      "type": "function"
    },
    {
      "inputs": [
        {
          "internalType": "bytes32",
          "name": "role",
          "type": "bytes32"
        },
        {
          "internalType": "address",
          "name": "account",
          "type": "address"
        }
      ],
      "name": "revokeRole",
      "outputs": [],
      "stateMutability": "nonpayable",
      "type": "function"
    },
    {
      "inputs": [
        {
          "internalType": "bytes4",
          "name": "interfaceId",
          "type": "bytes4"
        }
      ],
      "name": "supportsInterface",
      "outputs": [
        {
          "internalType": "bool",
          "name": "",
          "type": "bool"
        }
      ],
      "stateMutability": "view",
      "type": "function"
    },
    {
      "inputs": [
        {
          "internalType": "address",
          "name": "newImplementation",
          "type": "address"
        },
        {
          "internalType": "bytes",
          "name": "data",
          "type": "bytes"
        }
      ],
      "name": "upgradeToAndCall",
      "outputs": [],
      "stateMutability": "payable",
      "type": "function"
    }
  ],
  "bytecode": "0x60a06040523073ffffffffffffffffffffffffffffffffffffffff1660809073ffffffffffffffffffffffffffffffffffffffff1681525034801561004357600080fd5b5060805161195d61006d60003960008181610b1101528181610b660152610d44015261195d6000f3fe6080604052600436106100e85760003560e01c8063658504d11161008a578063d547741f11610059578063d547741f146102d5578063da35a26f146102fe578063f5b541a614610327578063f72c0d8b14610352576100e8565b8063658504d11461021757806391d1485414610242578063a217fddf1461027f578063ad3cb1cc146102aa576100e8565b80632f2ff15d116100c65780632f2ff15d1461017e57806336568abe146101a75780634f1ef286146101d057806352d1902d146101ec576100e8565b806301ffc9a7146100ed5780632102ffaa1461012a578063248a9ca314610141575b600080fd5b3480156100f957600080fd5b50610114600480360381019061010f9190611280565b61037d565b60405161012191906112c8565b60405180910390f35b34801561013657600080fd5b5061013f6103f7565b005b34801561014d57600080fd5b5061016860048036038101906101639190611319565b610457565b6040516101759190611355565b60405180910390f35b34801561018a57600080fd5b506101a560048036038101906101a091906113ce565b610485565b005b3480156101b357600080fd5b506101ce60048036038101906101c991906113ce565b6104a7565b005b6101ea60048036038101906101e59190611554565b610522565b005b3480156101f857600080fd5b50610201610541565b60405161020e9190611355565b60405180910390f35b34801561022357600080fd5b5061022c610574565b60405161023991906115c9565b60405180910390f35b34801561024e57600080fd5b50610269600480360381019061026491906113ce565b61057a565b60405161027691906112c8565b60405180910390f35b34801561028b57600080fd5b506102946105f3565b6040516102a19190611355565b60405180910390f35b3480156102b657600080fd5b506102bf6105fa565b6040516102cc9190611663565b60405180910390f35b3480156102e157600080fd5b506102fc60048036038101906102f791906113ce565b610633565b005b34801561030a57600080fd5b50610325600480360381019061032091906116b1565b610655565b005b34801561033357600080fd5b5061033c610816565b6040516103499190611355565b60405180910390f35b34801561035e57600080fd5b5061036761083a565b6040516103749190611355565b60405180910390f35b60007f7965db0b000000000000000000000000000000000000000000000000000000007bffffffffffffffffffffffffffffffffffffffffffffffffffffffff1916827bffffffffffffffffffffffffffffffffffffffffffffffffffffffff191614806103f057506103ef8261085e565b5b9050919050565b60016000541161043c576040517f08c379a00000000000000000000000000000000000000000000000000000000081526004016104339061173d565b60405180910390fd5b600160008082825461044e919061178c565b92505081905550565b6000806104626108c8565b905080600001600084815260200190815260200160002060010154915050919050565b61048e82610457565b610497816108f0565b6104a18383610904565b50505050565b6104af610a05565b73ffffffffffffffffffffffffffffffffffffffff168173ffffffffffffffffffffffffffffffffffffffff1614610513576040517f6697b23200000000000000000000000000000000000000000000000000000000815260040160405180910390fd5b61051d8282610a0d565b505050565b61052a610b0f565b61053382610bf5565b61053d8282610c23565b5050565b600061054b610d42565b7f360894a13ba1a3210667c828492db98dca3e2076cc3735a920a3ca505d382bbc60001b905090565b60005481565b6000806105856108c8565b905080600001600085815260200190815260200160002060000160008473ffffffffffffffffffffffffffffffffffffffff1673ffffffffffffffffffffffffffffffffffffffff16815260200190815260200160002060009054906101000a900460ff1691505092915050565b6000801b81565b6040518060400160405280600581526020017f352e302e3000000000000000000000000000000000000000000000000000000081525081565b61063c82610457565b610645816108f0565b61064f8383610a0d565b50505050565b600061065f610dc9565b905060008160000160089054906101000a900460ff1615905060008260000160009054906101000a900467ffffffffffffffff1690506000808267ffffffffffffffff161480156106ad5750825b9050600060018367ffffffffffffffff161480156106e2575060003073ffffffffffffffffffffffffffffffffffffffff163b145b9050811580156106f0575080155b15610727576040517ff92ee8a900000000000000000000000000000000000000000000000000000000815260040160405180910390fd5b60018560000160006101000a81548167ffffffffffffffff021916908367ffffffffffffffff16021790555083156107775760018560000160086101000a81548160ff0219169083151502179055505b61077f610df1565b866000819055506107b07f55504752414445525f524f4c450000000000000000000000000000000000000087610904565b50831561080d5760008560000160086101000a81548160ff0219169083151502179055507fc7f505b2f371ae2175ee4913f4499e1f2633a7b5936321eed1cdaeb6115181d260016040516108049190611819565b60405180910390a15b50505050505050565b7f4f50455241544f525f524f4c450000000000000000000000000000000000000081565b7f55504752414445525f524f4c450000000000000000000000000000000000000081565b60007f01ffc9a7000000000000000000000000000000000000000000000000000000007bffffffffffffffffffffffffffffffffffffffffffffffffffffffff1916827bffffffffffffffffffffffffffffffffffffffffffffffffffffffff1916149050919050565b60007f02dd7bc7dec4dceedda775e58dd541e08a116c6c53815c0bd028192f7b626800905090565b610901816108fc610a05565b610e19565b50565b60008061090f6108c8565b905061091b848461057a565b6109f957600181600001600086815260200190815260200160002060000160008573ffffffffffffffffffffffffffffffffffffffff1673ffffffffffffffffffffffffffffffffffffffff16815260200190815260200160002060006101000a81548160ff021916908315150217905550610995610a05565b73ffffffffffffffffffffffffffffffffffffffff168373ffffffffffffffffffffffffffffffffffffffff16857f2f8788117e7eff1d82e926ec794901d17c78024a50270940304540a733656f0d60405160405180910390a460019150506109ff565b60009150505b92915050565b600033905090565b600080610a186108c8565b9050610a24848461057a565b15610b0357600081600001600086815260200190815260200160002060000160008573ffffffffffffffffffffffffffffffffffffffff1673ffffffffffffffffffffffffffffffffffffffff16815260200190815260200160002060006101000a81548160ff021916908315150217905550610a9f610a05565b73ffffffffffffffffffffffffffffffffffffffff168373ffffffffffffffffffffffffffffffffffffffff16857ff6391f5c32d9c69d2a47ea670b442974b53935d1edc7fd64eb21e047a839171b60405160405180910390a46001915050610b09565b60009150505b92915050565b7f000000000000000000000000000000000000000000000000000000000000000073ffffffffffffffffffffffffffffffffffffffff163073ffffffffffffffffffffffffffffffffffffffff161480610bbc57507f000000000000000000000000000000000000000000000000000000000000000073ffffffffffffffffffffffffffffffffffffffff16610ba3610e6a565b73ffffffffffffffffffffffffffffffffffffffff1614155b15610bf3576040517fe07c8dba00000000000000000000000000000000000000000000000000000000815260040160405180910390fd5b565b7f55504752414445525f524f4c4500000000000000000000000000000000000000610c1f816108f0565b5050565b8173ffffffffffffffffffffffffffffffffffffffff166352d1902d6040518163ffffffff1660e01b8152600401602060405180830381865afa925050508015610c8b57506040513d601f19601f82011682018060405250810190610c889190611849565b60015b610ccc57816040517f4c9c8ce3000000000000000000000000000000000000000000000000000000008152600401610cc39190611885565b60405180910390fd5b7f360894a13ba1a3210667c828492db98dca3e2076cc3735a920a3ca505d382bbc60001b8114610d3357806040517faa1d49a4000000000000000000000000000000000000000000000000000000008152600401610d2a9190611355565b60405180910390fd5b610d3d8383610ec1565b505050565b7f000000000000000000000000000000000000000000000000000000000000000073ffffffffffffffffffffffffffffffffffffffff163073ffffffffffffffffffffffffffffffffffffffff1614610dc7576040517fe07c8dba00000000000000000000000000000000000000000000000000000000815260040160405180910390fd5b565b60007ff0c57e16840df040f15088dc2f81fe391c3923bec73e23a9662efc9c229c6a00905090565b610df9610f34565b610e01610f74565b610e09610f7e565b610e166000801b33610904565b50565b610e23828261057a565b610e665780826040517fe2517d3f000000000000000000000000000000000000000000000000000000008152600401610e5d9291906118a0565b60405180910390fd5b5050565b6000610e987f360894a13ba1a3210667c828492db98dca3e2076cc3735a920a3ca505d382bbc60001b610f88565b60000160009054906101000a900473ffffffffffffffffffffffffffffffffffffffff16905090565b610eca82610f92565b8173ffffffffffffffffffffffffffffffffffffffff167fbc7cd75a20ee27fd9adebab32041f755214dbc6bffa90cc0225b39da2e5c2d3b60405160405180910390a2600081511115610f2757610f21828261105f565b50610f30565b610f2f6110e3565b5b5050565b610f3c611120565b610f72576040517fd7e6bcf800000000000000000000000000000000000000000000000000000000815260040160405180910390fd5b565b610f7c610f34565b565b610f86610f34565b565b6000819050919050565b60008173ffffffffffffffffffffffffffffffffffffffff163b03610fee57806040517f4c9c8ce3000000000000000000000000000000000000000000000000000000008152600401610fe59190611885565b60405180910390fd5b8061101b7f360894a13ba1a3210667c828492db98dca3e2076cc3735a920a3ca505d382bbc60001b610f88565b60000160006101000a81548173ffffffffffffffffffffffffffffffffffffffff021916908373ffffffffffffffffffffffffffffffffffffffff16021790555050565b60606000808473ffffffffffffffffffffffffffffffffffffffff16846040516110899190611910565b600060405180830381855af49150503d80600081146110c4576040519150601f19603f3d011682016040523d82523d6000602084013e6110c9565b606091505b50915091506110d9858383611140565b9250505092915050565b600034111561111e576040517fb398979f00000000000000000000000000000000000000000000000000000000815260040160405180910390fd5b565b600061112a610dc9565b60000160089054906101000a900460ff16905090565b60608261115557611150826111cf565b6111c7565b6000825114801561117d575060008473ffffffffffffffffffffffffffffffffffffffff163b145b156111bf57836040517f9996b3150000000000000000000000000000000000000000000000000000000081526004016111b69190611885565b60405180910390fd5b8190506111c8565b5b9392505050565b6000815111156111e25780518082602001fd5b6040517f1425ea4200000000000000000000000000000000000000000000000000000000815260040160405180910390fd5b6000604051905090565b600080fd5b600080fd5b60007fffffffff0000000000000000000000000000000000000000000000000000000082169050919050565b61125d81611228565b811461126857600080fd5b50565b60008135905061127a81611254565b92915050565b6000602082840312156112965761129561121e565b5b60006112a48482850161126b565b91505092915050565b60008115159050919050565b6112c2816112ad565b82525050565b60006020820190506112dd60008301846112b9565b92915050565b6000819050919050565b6112f6816112e3565b811461130157600080fd5b50565b600081359050611313816112ed565b92915050565b60006020828403121561132f5761132e61121e565b5b600061133d84828501611304565b91505092915050565b61134f816112e3565b82525050565b600060208201905061136a6000830184611346565b92915050565b600073ffffffffffffffffffffffffffffffffffffffff82169050919050565b600061139b82611370565b9050919050565b6113ab81611390565b81146113b657600080fd5b50565b6000813590506113c8816113a2565b92915050565b600080604083850312156113e5576113e461121e565b5b60006113f385828601611304565b9250506020611404858286016113b9565b9150509250929050565b600080fd5b600080fd5b6000601f19601f8301169050919050565b7f4e487b7100000000000000000000000000000000000000000000000000000000600052604160045260246000fd5b61146182611418565b810181811067ffffffffffffffff821117156114805761147f611429565b5b80604052505050565b6000611493611214565b905061149f8282611458565b919050565b600067ffffffffffffffff8211156114bf576114be611429565b5b6114c882611418565b9050602081019050919050565b82818337600083830152505050565b60006114f76114f2846114a4565b611489565b90508281526020810184848401111561151357611512611413565b5b61151e8482856114d5565b509392505050565b600082601f83011261153b5761153a61140e565b5b813561154b8482602086016114e4565b91505092915050565b6000806040838503121561156b5761156a61121e565b5b6000611579858286016113b9565b925050602083013567ffffffffffffffff81111561159a57611599611223565b5b6115a685828601611526565b9150509250929050565b6000819050919050565b6115c3816115b0565b82525050565b60006020820190506115de60008301846115ba565b92915050565b600081519050919050565b600082825260208201905092915050565b60005b8381101561161e578082015181840152602081019050611603565b60008484015250505050565b6000611635826115e4565b61163f81856115ef565b935061164f818560208601611600565b61165881611418565b840191505092915050565b6000602082019050818103600083015261167d818461162a565b905092915050565b61168e816115b0565b811461169957600080fd5b50565b6000813590506116ab81611685565b92915050565b600080604083850312156116c8576116c761121e565b5b60006116d68582860161169c565b92505060206116e7858286016113b9565b9150509250929050565b7f4e6f7468696e6720696e73696465000000000000000000000000000000000000600082015250565b6000611727600e836115ef565b9150611732826116f1565b602082019050919050565b600060208201905081810360008301526117568161171a565b9050919050565b7f4e487b7100000000000000000000000000000000000000000000000000000000600052601160045260246000fd5b6000611797826115b0565b91506117a2836115b0565b92508282039050818111156117ba576117b961175d565b5b92915050565b6000819050919050565b600067ffffffffffffffff82169050919050565b6000819050919050565b60006118036117fe6117f9846117c0565b6117de565b6117ca565b9050919050565b611813816117e8565b82525050565b600060208201905061182e600083018461180a565b92915050565b600081519050611843816112ed565b92915050565b60006020828403121561185f5761185e61121e565b5b600061186d84828501611834565b91505092915050565b61187f81611390565b82525050565b600060208201905061189a6000830184611876565b92915050565b60006040820190506118b56000830185611876565b6118c26020830184611346565b9392505050565b600081519050919050565b600081905092915050565b60006118ea826118c9565b6118f481856118d4565b9350611904818560208601611600565b80840191505092915050565b600061191c82846118df565b91508190509291505056fea264697066735822122031fbdc738b4c568193369f8dbca55ecf5804873caaf817c16f78f8583c898d2164736f6c63430008140033",
  "linkReferences": {},
  "deployedLinkReferences": {}
}