{
  "_format": "hh-sol-artifact-1",
  "contractName": "SLGUUPSUpgradeable",
  "sourceName": "contracts/SLGUUPSUpgradeable.sol",
  "abi": [
    {
      "inputs": [],
      "name": "AccessControlBadConfirmation",
      "type": "error"
    },
    {
      "inputs": [
        {
          "internalType": "address",
          "name": "account",
          "type": "address"
        },
        {
          "internalType": "bytes32",
          "name": "neededRole",
          "type": "bytes32"
        }
      ],
      "name": "AccessControlUnauthorizedAccount",
      "type": "error"
    },
    {
      "inputs": [
        {
          "internalType": "address",
          "name": "target",
          "type": "address"
        }
      ],
      "name": "AddressEmptyCode",
      "type": "error"
    },
    {
      "inputs": [
        {
          "internalType": "address",
          "name": "implementation",
          "type": "address"
        }
      ],
      "name": "ERC1967InvalidImplementation",
      "type": "error"
    },
    {
      "inputs": [],
      "name": "ERC1967NonPayable",
      "type": "error"
    },
    {
      "inputs": [],
      "name": "FailedInnerCall",
      "type": "error"
    },
    {
      "inputs": [],
      "name": "InvalidInitialization",
      "type": "error"
    },
    {
      "inputs": [],
      "name": "NotInitializing",
      "type": "error"
    },
    {
      "inputs": [],
      "name": "UUPSUnauthorizedCallContext",
      "type": "error"
    },
    {
      "inputs": [
        {
          "internalType": "bytes32",
          "name": "slot",
          "type": "bytes32"
        }
      ],
      "name": "UUPSUnsupportedProxiableUUID",
      "type": "error"
    },
    {
      "anonymous": false,
      "inputs": [
        {
          "indexed": false,
          "internalType": "uint64",
          "name": "version",
          "type": "uint64"
        }
      ],
      "name": "Initialized",
      "type": "event"
    },
    {
      "anonymous": false,
      "inputs": [
        {
          "indexed": true,
          "internalType": "bytes32",
          "name": "role",
          "type": "bytes32"
        },
        {
          "indexed": true,
          "internalType": "bytes32",
          "name": "previousAdminRole",
          "type": "bytes32"
        },
        {
          "indexed": true,
          "internalType": "bytes32",
          "name": "newAdminRole",
          "type": "bytes32"
        }
      ],
      "name": "RoleAdminChanged",
      "type": "event"
    },
    {
      "anonymous": false,
      "inputs": [
        {
          "indexed": true,
          "internalType": "bytes32",
          "name": "role",
          "type": "bytes32"
        },
        {
          "indexed": true,
          "internalType": "address",
          "name": "account",
          "type": "address"
        },
        {
          "indexed": true,
          "internalType": "address",
          "name": "sender",
          "type": "address"
        }
      ],
      "name": "RoleGranted",
      "type": "event"
    },
    {
      "anonymous": false,
      "inputs": [
        {
          "indexed": true,
          "internalType": "bytes32",
          "name": "role",
          "type": "bytes32"
        },
        {
          "indexed": true,
          "internalType": "address",
          "name": "account",
          "type": "address"
        },
        {
          "indexed": true,
          "internalType": "address",
          "name": "sender",
          "type": "address"
        }
      ],
      "name": "RoleRevoked",
      "type": "event"
    },
    {
      "anonymous": false,
      "inputs": [
        {
          "indexed": true,
          "internalType": "address",
          "name": "implementation",
          "type": "address"
        }
      ],
      "name": "Upgraded",
      "type": "event"
    },
    {
      "inputs": [],
      "name": "DEFAULT_ADMIN_ROLE",
      "outputs": [
        {
          "internalType": "bytes32",
          "name": "",
          "type": "bytes32"
        }
      ],
      "stateMutability": "view",
      "type": "function"
    },
    {
      "inputs": [],
      "name": "OPERATOR_ROLE",
      "outputs": [
        {
          "internalType": "bytes32",
          "name": "",
          "type": "bytes32"
        }
      ],
      "stateMutability": "view",
      "type": "function"
    },
    {
      "inputs": [],
      "name": "UPGRADER_ROLE",
      "outputs": [
        {
          "internalType": "bytes32",
          "name": "",
          "type": "bytes32"
        }
      ],
      "stateMutability": "view",
      "type": "function"
    },
    {
      "inputs": [],
      "name": "UPGRADE_INTERFACE_VERSION",
      "outputs": [
        {
          "internalType": "string",
          "name": "",
          "type": "string"
        }
      ],
      "stateMutability": "view",
      "type": "function"
    },
    {
      "inputs": [
        {
          "internalType": "bytes32",
          "name": "role",
          "type": "bytes32"
        }
      ],
      "name": "getRoleAdmin",
      "outputs": [
        {
          "internalType": "bytes32",
          "name": "",
          "type": "bytes32"
        }
      ],
      "stateMutability": "view",
      "type": "function"
    },
    {
      "inputs": [
        {
          "internalType": "bytes32",
          "name": "role",
          "type": "bytes32"
        },
        {
          "internalType": "address",
          "name": "account",
          "type": "address"
        }
      ],
      "name": "grantRole",
      "outputs": [],
      "stateMutability": "nonpayable",
      "type": "function"
    },
    {
      "inputs": [
        {
          "internalType": "bytes32",
          "name": "role",
          "type": "bytes32"
        },
        {
          "internalType": "address",
          "name": "account",
          "type": "address"
        }
      ],
      "name": "hasRole",
      "outputs": [
        {
          "internalType": "bool",
          "name": "",
          "type": "bool"
        }
      ],
      "stateMutability": "view",
      "type": "function"
    },
    {
      "inputs": [],
      "name": "proxiableUUID",
      "outputs": [
        {
          "internalType": "bytes32",
          "name": "",
          "type": "bytes32"
        }
      ],
      "stateMutability": "view",
      "type": "function"
    },
    {
      "inputs": [
        {
          "internalType": "bytes32",
          "name": "role",
          "type": "bytes32"
        },
        {
          "internalType": "address",
          "name": "callerConfirmation",
          "type": "address"
        }
      ],
      "name": "renounceRole",
      "outputs": [],
      "stateMutability": "nonpayable",
      "type": "function"
    },
    {
      "inputs": [
        {
          "internalType": "bytes32",
          "name": "role",
          "type": "bytes32"
        },
        {
          "internalType": "address",
          "name": "account",
          "type": "address"
        }
      ],
      "name": "revokeRole",
      "outputs": [],
      "stateMutability": "nonpayable",
      "type": "function"
    },
    {
      "inputs": [
        {
          "internalType": "bytes4",
          "name": "interfaceId",
          "type": "bytes4"
        }
      ],
      "name": "supportsInterface",
      "outputs": [
        {
          "internalType": "bool",
          "name": "",
          "type": "bool"
        }
      ],
      "stateMutability": "view",
      "type": "function"
    },
    {
      "inputs": [
        {
          "internalType": "address",
          "name": "newImplementation",
          "type": "address"
        },
        {
          "internalType": "bytes",
          "name": "data",
          "type": "bytes"
        }
      ],
      "name": "upgradeToAndCall",
      "outputs": [],
      "stateMutability": "payable",
      "type": "function"
    }
  ],
  "bytecode": "0x60a06040523073ffffffffffffffffffffffffffffffffffffffff1660809073ffffffffffffffffffffffffffffffffffffffff1681525034801561004357600080fd5b506080516113e361006d6000396000818161083e015281816108930152610a7101526113e36000f3fe6080604052600436106100a75760003560e01c806391d148541161006457806391d14854146101bf578063a217fddf146101fc578063ad3cb1cc14610227578063d547741f14610252578063f5b541a61461027b578063f72c0d8b146102a6576100a7565b806301ffc9a7146100ac578063248a9ca3146100e95780632f2ff15d1461012657806336568abe1461014f5780634f1ef2861461017857806352d1902d14610194575b600080fd5b3480156100b857600080fd5b506100d360048036038101906100ce9190610ee9565b6102d1565b6040516100e09190610f31565b60405180910390f35b3480156100f557600080fd5b50610110600480360381019061010b9190610f82565b61034b565b60405161011d9190610fbe565b60405180910390f35b34801561013257600080fd5b5061014d60048036038101906101489190611037565b610379565b005b34801561015b57600080fd5b5061017660048036038101906101719190611037565b61039b565b005b610192600480360381019061018d91906111bd565b610416565b005b3480156101a057600080fd5b506101a9610435565b6040516101b69190610fbe565b60405180910390f35b3480156101cb57600080fd5b506101e660048036038101906101e19190611037565b610468565b6040516101f39190610f31565b60405180910390f35b34801561020857600080fd5b506102116104e1565b60405161021e9190610fbe565b60405180910390f35b34801561023357600080fd5b5061023c6104e8565b6040516102499190611298565b60405180910390f35b34801561025e57600080fd5b5061027960048036038101906102749190611037565b610521565b005b34801561028757600080fd5b50610290610543565b60405161029d9190610fbe565b60405180910390f35b3480156102b257600080fd5b506102bb610567565b6040516102c89190610fbe565b60405180910390f35b60007f7965db0b000000000000000000000000000000000000000000000000000000007bffffffffffffffffffffffffffffffffffffffffffffffffffffffff1916827bffffffffffffffffffffffffffffffffffffffffffffffffffffffff1916148061034457506103438261058b565b5b9050919050565b6000806103566105f5565b905080600001600084815260200190815260200160002060010154915050919050565b6103828261034b565b61038b8161061d565b6103958383610631565b50505050565b6103a3610732565b73ffffffffffffffffffffffffffffffffffffffff168173ffffffffffffffffffffffffffffffffffffffff1614610407576040517f6697b23200000000000000000000000000000000000000000000000000000000815260040160405180910390fd5b610411828261073a565b505050565b61041e61083c565b61042782610922565b6104318282610950565b5050565b600061043f610a6f565b7f360894a13ba1a3210667c828492db98dca3e2076cc3735a920a3ca505d382bbc60001b905090565b6000806104736105f5565b905080600001600085815260200190815260200160002060000160008473ffffffffffffffffffffffffffffffffffffffff1673ffffffffffffffffffffffffffffffffffffffff16815260200190815260200160002060009054906101000a900460ff1691505092915050565b6000801b81565b6040518060400160405280600581526020017f352e302e3000000000000000000000000000000000000000000000000000000081525081565b61052a8261034b565b6105338161061d565b61053d838361073a565b50505050565b7f4f50455241544f525f524f4c450000000000000000000000000000000000000081565b7f55504752414445525f524f4c450000000000000000000000000000000000000081565b60007f01ffc9a7000000000000000000000000000000000000000000000000000000007bffffffffffffffffffffffffffffffffffffffffffffffffffffffff1916827bffffffffffffffffffffffffffffffffffffffffffffffffffffffff1916149050919050565b60007f02dd7bc7dec4dceedda775e58dd541e08a116c6c53815c0bd028192f7b626800905090565b61062e81610629610732565b610af6565b50565b60008061063c6105f5565b90506106488484610468565b61072657600181600001600086815260200190815260200160002060000160008573ffffffffffffffffffffffffffffffffffffffff1673ffffffffffffffffffffffffffffffffffffffff16815260200190815260200160002060006101000a81548160ff0219169083151502179055506106c2610732565b73ffffffffffffffffffffffffffffffffffffffff168373ffffffffffffffffffffffffffffffffffffffff16857f2f8788117e7eff1d82e926ec794901d17c78024a50270940304540a733656f0d60405160405180910390a4600191505061072c565b60009150505b92915050565b600033905090565b6000806107456105f5565b90506107518484610468565b1561083057600081600001600086815260200190815260200160002060000160008573ffffffffffffffffffffffffffffffffffffffff1673ffffffffffffffffffffffffffffffffffffffff16815260200190815260200160002060006101000a81548160ff0219169083151502179055506107cc610732565b73ffffffffffffffffffffffffffffffffffffffff168373ffffffffffffffffffffffffffffffffffffffff16857ff6391f5c32d9c69d2a47ea670b442974b53935d1edc7fd64eb21e047a839171b60405160405180910390a46001915050610836565b60009150505b92915050565b7f000000000000000000000000000000000000000000000000000000000000000073ffffffffffffffffffffffffffffffffffffffff163073ffffffffffffffffffffffffffffffffffffffff1614806108e957507f000000000000000000000000000000000000000000000000000000000000000073ffffffffffffffffffffffffffffffffffffffff166108d0610b47565b73ffffffffffffffffffffffffffffffffffffffff1614155b15610920576040517fe07c8dba00000000000000000000000000000000000000000000000000000000815260040160405180910390fd5b565b7f55504752414445525f524f4c450000000000000000000000000000000000000061094c8161061d565b5050565b8173ffffffffffffffffffffffffffffffffffffffff166352d1902d6040518163ffffffff1660e01b8152600401602060405180830381865afa9250505080156109b857506040513d601f19601f820116820180604052508101906109b591906112cf565b60015b6109f957816040517f4c9c8ce30000000000000000000000000000000000000000000000000000000081526004016109f0919061130b565b60405180910390fd5b7f360894a13ba1a3210667c828492db98dca3e2076cc3735a920a3ca505d382bbc60001b8114610a6057806040517faa1d49a4000000000000000000000000000000000000000000000000000000008152600401610a579190610fbe565b60405180910390fd5b610a6a8383610b9e565b505050565b7f000000000000000000000000000000000000000000000000000000000000000073ffffffffffffffffffffffffffffffffffffffff163073ffffffffffffffffffffffffffffffffffffffff1614610af4576040517fe07c8dba00000000000000000000000000000000000000000000000000000000815260040160405180910390fd5b565b610b008282610468565b610b435780826040517fe2517d3f000000000000000000000000000000000000000000000000000000008152600401610b3a929190611326565b60405180910390fd5b5050565b6000610b757f360894a13ba1a3210667c828492db98dca3e2076cc3735a920a3ca505d382bbc60001b610c11565b60000160009054906101000a900473ffffffffffffffffffffffffffffffffffffffff16905090565b610ba782610c1b565b8173ffffffffffffffffffffffffffffffffffffffff167fbc7cd75a20ee27fd9adebab32041f755214dbc6bffa90cc0225b39da2e5c2d3b60405160405180910390a2600081511115610c0457610bfe8282610ce8565b50610c0d565b610c0c610d6c565b5b5050565b6000819050919050565b60008173ffffffffffffffffffffffffffffffffffffffff163b03610c7757806040517f4c9c8ce3000000000000000000000000000000000000000000000000000000008152600401610c6e919061130b565b60405180910390fd5b80610ca47f360894a13ba1a3210667c828492db98dca3e2076cc3735a920a3ca505d382bbc60001b610c11565b60000160006101000a81548173ffffffffffffffffffffffffffffffffffffffff021916908373ffffffffffffffffffffffffffffffffffffffff16021790555050565b60606000808473ffffffffffffffffffffffffffffffffffffffff1684604051610d129190611396565b600060405180830381855af49150503d8060008114610d4d576040519150601f19603f3d011682016040523d82523d6000602084013e610d52565b606091505b5091509150610d62858383610da9565b9250505092915050565b6000341115610da7576040517fb398979f00000000000000000000000000000000000000000000000000000000815260040160405180910390fd5b565b606082610dbe57610db982610e38565b610e30565b60008251148015610de6575060008473ffffffffffffffffffffffffffffffffffffffff163b145b15610e2857836040517f9996b315000000000000000000000000000000000000000000000000000000008152600401610e1f919061130b565b60405180910390fd5b819050610e31565b5b9392505050565b600081511115610e4b5780518082602001fd5b6040517f1425ea4200000000000000000000000000000000000000000000000000000000815260040160405180910390fd5b6000604051905090565b600080fd5b600080fd5b60007fffffffff0000000000000000000000000000000000000000000000000000000082169050919050565b610ec681610e91565b8114610ed157600080fd5b50565b600081359050610ee381610ebd565b92915050565b600060208284031215610eff57610efe610e87565b5b6000610f0d84828501610ed4565b91505092915050565b60008115159050919050565b610f2b81610f16565b82525050565b6000602082019050610f466000830184610f22565b92915050565b6000819050919050565b610f5f81610f4c565b8114610f6a57600080fd5b50565b600081359050610f7c81610f56565b92915050565b600060208284031215610f9857610f97610e87565b5b6000610fa684828501610f6d565b91505092915050565b610fb881610f4c565b82525050565b6000602082019050610fd36000830184610faf565b92915050565b600073ffffffffffffffffffffffffffffffffffffffff82169050919050565b600061100482610fd9565b9050919050565b61101481610ff9565b811461101f57600080fd5b50565b6000813590506110318161100b565b92915050565b6000806040838503121561104e5761104d610e87565b5b600061105c85828601610f6d565b925050602061106d85828601611022565b9150509250929050565b600080fd5b600080fd5b6000601f19601f8301169050919050565b7f4e487b7100000000000000000000000000000000000000000000000000000000600052604160045260246000fd5b6110ca82611081565b810181811067ffffffffffffffff821117156110e9576110e8611092565b5b80604052505050565b60006110fc610e7d565b905061110882826110c1565b919050565b600067ffffffffffffffff82111561112857611127611092565b5b61113182611081565b9050602081019050919050565b82818337600083830152505050565b600061116061115b8461110d565b6110f2565b90508281526020810184848401111561117c5761117b61107c565b5b61118784828561113e565b509392505050565b600082601f8301126111a4576111a3611077565b5b81356111b484826020860161114d565b91505092915050565b600080604083850312156111d4576111d3610e87565b5b60006111e285828601611022565b925050602083013567ffffffffffffffff81111561120357611202610e8c565b5b61120f8582860161118f565b9150509250929050565b600081519050919050565b600082825260208201905092915050565b60005b83811015611253578082015181840152602081019050611238565b60008484015250505050565b600061126a82611219565b6112748185611224565b9350611284818560208601611235565b61128d81611081565b840191505092915050565b600060208201905081810360008301526112b2818461125f565b905092915050565b6000815190506112c981610f56565b92915050565b6000602082840312156112e5576112e4610e87565b5b60006112f3848285016112ba565b91505092915050565b61130581610ff9565b82525050565b600060208201905061132060008301846112fc565b92915050565b600060408201905061133b60008301856112fc565b6113486020830184610faf565b9392505050565b600081519050919050565b600081905092915050565b60006113708261134f565b61137a818561135a565b935061138a818560208601611235565b80840191505092915050565b60006113a28284611365565b91508190509291505056fea2646970667358221220d5d7ba1ab3512759c27cbddd35cacddf728d63da365963e8b93b6b12c3c5eeb064736f6c63430008140033",
  "linkReferences": {},
  "deployedLinkReferences": {}
}