{
  "_format": "hh-sol-artifact-1",
  "contractName": "BoxV2",
  "sourceName": "contracts/BoxV2.sol",
  "abi": [
    {
      "inputs": [],
      "name": "AccessControlBadConfirmation",
      "type": "error"
    },
    {
      "inputs": [
        {
          "internalType": "address",
          "name": "account",
          "type": "address"
        },
        {
          "internalType": "bytes32",
          "name": "neededRole",
          "type": "bytes32"
        }
      ],
      "name": "AccessControlUnauthorizedAccount",
      "type": "error"
    },
    {
      "inputs": [
        {
          "internalType": "address",
          "name": "target",
          "type": "address"
        }
      ],
      "name": "AddressEmptyCode",
      "type": "error"
    },
    {
      "inputs": [
        {
          "internalType": "address",
          "name": "implementation",
          "type": "address"
        }
      ],
      "name": "ERC1967InvalidImplementation",
      "type": "error"
    },
    {
      "inputs": [],
      "name": "ERC1967NonPayable",
      "type": "error"
    },
    {
      "inputs": [],
      "name": "FailedInnerCall",
      "type": "error"
    },
    {
      "inputs": [],
      "name": "InvalidInitialization",
      "type": "error"
    },
    {
      "inputs": [],
      "name": "NotInitializing",
      "type": "error"
    },
    {
      "inputs": [],
      "name": "UUPSUnauthorizedCallContext",
      "type": "error"
    },
    {
      "inputs": [
        {
          "internalType": "bytes32",
          "name": "slot",
          "type": "bytes32"
        }
      ],
      "name": "UUPSUnsupportedProxiableUUID",
      "type": "error"
    },
    {
      "anonymous": false,
      "inputs": [
        {
          "indexed": false,
          "internalType": "uint64",
          "name": "version",
          "type": "uint64"
        }
      ],
      "name": "Initialized",
      "type": "event"
    },
    {
      "anonymous": false,
      "inputs": [
        {
          "indexed": true,
          "internalType": "bytes32",
          "name": "role",
          "type": "bytes32"
        },
        {
          "indexed": true,
          "internalType": "bytes32",
          "name": "previousAdminRole",
          "type": "bytes32"
        },
        {
          "indexed": true,
          "internalType": "bytes32",
          "name": "newAdminRole",
          "type": "bytes32"
        }
      ],
      "name": "RoleAdminChanged",
      "type": "event"
    },
    {
      "anonymous": false,
      "inputs": [
        {
          "indexed": true,
          "internalType": "bytes32",
          "name": "role",
          "type": "bytes32"
        },
        {
          "indexed": true,
          "internalType": "address",
          "name": "account",
          "type": "address"
        },
        {
          "indexed": true,
          "internalType": "address",
          "name": "sender",
          "type": "address"
        }
      ],
      "name": "RoleGranted",
      "type": "event"
    },
    {
      "anonymous": false,
      "inputs": [
        {
          "indexed": true,
          "internalType": "bytes32",
          "name": "role",
          "type": "bytes32"
        },
        {
          "indexed": true,
          "internalType": "address",
          "name": "account",
          "type": "address"
        },
        {
          "indexed": true,
          "internalType": "address",
          "name": "sender",
          "type": "address"
        }
      ],
      "name": "RoleRevoked",
      "type": "event"
    },
    {
      "anonymous": false,
      "inputs": [
        {
          "indexed": true,
          "internalType": "address",
          "name": "implementation",
          "type": "address"
        }
      ],
      "name": "Upgraded",
      "type": "event"
    },
    {
      "inputs": [],
      "name": "DEFAULT_ADMIN_ROLE",
      "outputs": [
        {
          "internalType": "bytes32",
          "name": "",
          "type": "bytes32"
        }
      ],
      "stateMutability": "view",
      "type": "function"
    },
    {
      "inputs": [],
      "name": "OPERATOR_ROLE",
      "outputs": [
        {
          "internalType": "bytes32",
          "name": "",
          "type": "bytes32"
        }
      ],
      "stateMutability": "view",
      "type": "function"
    },
    {
      "inputs": [],
      "name": "UPGRADER_ROLE",
      "outputs": [
        {
          "internalType": "bytes32",
          "name": "",
          "type": "bytes32"
        }
      ],
      "stateMutability": "view",
      "type": "function"
    },
    {
      "inputs": [],
      "name": "UPGRADE_INTERFACE_VERSION",
      "outputs": [
        {
          "internalType": "string",
          "name": "",
          "type": "string"
        }
      ],
      "stateMutability": "view",
      "type": "function"
    },
    {
      "inputs": [],
      "name": "addObject",
      "outputs": [],
      "stateMutability": "nonpayable",
      "type": "function"
    },
    {
      "inputs": [],
      "name": "boxVersion",
      "outputs": [
        {
          "internalType": "uint256",
          "name": "",
          "type": "uint256"
        }
      ],
      "stateMutability": "pure",
      "type": "function"
    },
    {
      "inputs": [
        {
          "internalType": "bytes32",
          "name": "role",
          "type": "bytes32"
        }
      ],
      "name": "getRoleAdmin",
      "outputs": [
        {
          "internalType": "bytes32",
          "name": "",
          "type": "bytes32"
        }
      ],
      "stateMutability": "view",
      "type": "function"
    },
    {
      "inputs": [
        {
          "internalType": "bytes32",
          "name": "role",
          "type": "bytes32"
        },
        {
          "internalType": "address",
          "name": "account",
          "type": "address"
        }
      ],
      "name": "grantRole",
      "outputs": [],
      "stateMutability": "nonpayable",
      "type": "function"
    },
    {
      "inputs": [
        {
          "internalType": "bytes32",
          "name": "role",
          "type": "bytes32"
        },
        {
          "internalType": "address",
          "name": "account",
          "type": "address"
        }
      ],
      "name": "hasRole",
      "outputs": [
        {
          "internalType": "bool",
          "name": "",
          "type": "bool"
        }
      ],
      "stateMutability": "view",
      "type": "function"
    },
    {
      "inputs": [
        {
          "internalType": "uint256",
          "name": "objects",
          "type": "uint256"
        },
        {
          "internalType": "address",
          "name": "multisig",
          "type": "address"
        }
      ],
      "name": "initialize",
      "outputs": [],
      "stateMutability": "nonpayable",
      "type": "function"
    },
    {
      "inputs": [],
      "name": "numberOfObjects",
      "outputs": [
        {
          "internalType": "uint256",
          "name": "",
          "type": "uint256"
        }
      ],
      "stateMutability": "view",
      "type": "function"
    },
    {
      "inputs": [],
      "name": "proxiableUUID",
      "outputs": [
        {
          "internalType": "bytes32",
          "name": "",
          "type": "bytes32"
        }
      ],
      "stateMutability": "view",
      "type": "function"
    },
    {
      "inputs": [],
      "name": "removeObject",
      "outputs": [],
      "stateMutability": "nonpayable",
      "type": "function"
    },
    {
      "inputs": [
        {
          "internalType": "bytes32",
          "name": "role",
          "type": "bytes32"
        },
        {
          "internalType": "address",
          "name": "callerConfirmation",
          "type": "address"
        }
      ],
      "name": "renounceRole",
      "outputs": [],
      "stateMutability": "nonpayable",
      "type": "function"
    },
    {
      "inputs": [
        {
          "internalType": "bytes32",
          "name": "role",
          "type": "bytes32"
        },
        {
          "internalType": "address",
          "name": "account",
          "type": "address"
        }
      ],
      "name": "revokeRole",
      "outputs": [],
      "stateMutability": "nonpayable",
      "type": "function"
    },
    {
      "inputs": [
        {
          "internalType": "bytes4",
          "name": "interfaceId",
          "type": "bytes4"
        }
      ],
      "name": "supportsInterface",
      "outputs": [
        {
          "internalType": "bool",
          "name": "",
          "type": "bool"
        }
      ],
      "stateMutability": "view",
      "type": "function"
    },
    {
      "inputs": [
        {
          "internalType": "address",
          "name": "newImplementation",
          "type": "address"
        },
        {
          "internalType": "bytes",
          "name": "data",
          "type": "bytes"
        }
      ],
      "name": "upgradeToAndCall",
      "outputs": [],
      "stateMutability": "payable",
      "type": "function"
    }
  ],
  "bytecode": "0x60a06040523073ffffffffffffffffffffffffffffffffffffffff1660809073ffffffffffffffffffffffffffffffffffffffff1681525034801561004357600080fd5b50608051611a0d61006d60003960008181610b8d01528181610be20152610dc00152611a0d6000f3fe6080604052600436106100fe5760003560e01c8063658504d111610095578063c4df490e11610064578063c4df490e14610302578063d547741f1461032d578063da35a26f14610356578063f5b541a61461037f578063f72c0d8b146103aa576100fe565b8063658504d11461024457806391d148541461026f578063a217fddf146102ac578063ad3cb1cc146102d7576100fe565b806336568abe116100d157806336568abe146101bd5780634f1ef286146101e657806352d1902d1461020257806362029d2a1461022d576100fe565b806301ffc9a7146101035780632102ffaa14610140578063248a9ca3146101575780632f2ff15d14610194575b600080fd5b34801561010f57600080fd5b5061012a600480360381019061012591906112fc565b6103d5565b6040516101379190611344565b60405180910390f35b34801561014c57600080fd5b5061015561044f565b005b34801561016357600080fd5b5061017e60048036038101906101799190611395565b6104af565b60405161018b91906113d1565b60405180910390f35b3480156101a057600080fd5b506101bb60048036038101906101b6919061144a565b6104dd565b005b3480156101c957600080fd5b506101e460048036038101906101df919061144a565b6104ff565b005b61020060048036038101906101fb91906115d0565b61057a565b005b34801561020e57600080fd5b50610217610599565b60405161022491906113d1565b60405180910390f35b34801561023957600080fd5b506102426105cc565b005b34801561025057600080fd5b506102596105e7565b6040516102669190611645565b60405180910390f35b34801561027b57600080fd5b506102966004803603810190610291919061144a565b6105ed565b6040516102a39190611344565b60405180910390f35b3480156102b857600080fd5b506102c1610666565b6040516102ce91906113d1565b60405180910390f35b3480156102e357600080fd5b506102ec61066d565b6040516102f991906116df565b60405180910390f35b34801561030e57600080fd5b506103176106a6565b6040516103249190611645565b60405180910390f35b34801561033957600080fd5b50610354600480360381019061034f919061144a565b6106af565b005b34801561036257600080fd5b5061037d6004803603810190610378919061172d565b6106d1565b005b34801561038b57600080fd5b50610394610892565b6040516103a191906113d1565b60405180910390f35b3480156103b657600080fd5b506103bf6108b6565b6040516103cc91906113d1565b60405180910390f35b60007f7965db0b000000000000000000000000000000000000000000000000000000007bffffffffffffffffffffffffffffffffffffffffffffffffffffffff1916827bffffffffffffffffffffffffffffffffffffffffffffffffffffffff191614806104485750610447826108da565b5b9050919050565b600160005411610494576040517f08c379a000000000000000000000000000000000000000000000000000000000815260040161048b906117b9565b60405180910390fd5b60016000808282546104a69190611808565b92505081905550565b6000806104ba610944565b905080600001600084815260200190815260200160002060010154915050919050565b6104e6826104af565b6104ef8161096c565b6104f98383610980565b50505050565b610507610a81565b73ffffffffffffffffffffffffffffffffffffffff168173ffffffffffffffffffffffffffffffffffffffff161461056b576040517f6697b23200000000000000000000000000000000000000000000000000000000815260040160405180910390fd5b6105758282610a89565b505050565b610582610b8b565b61058b82610c71565b6105958282610c9f565b5050565b60006105a3610dbe565b7f360894a13ba1a3210667c828492db98dca3e2076cc3735a920a3ca505d382bbc60001b905090565b60016000808282546105de919061183c565b92505081905550565b60005481565b6000806105f8610944565b905080600001600085815260200190815260200160002060000160008473ffffffffffffffffffffffffffffffffffffffff1673ffffffffffffffffffffffffffffffffffffffff16815260200190815260200160002060009054906101000a900460ff1691505092915050565b6000801b81565b6040518060400160405280600581526020017f352e302e3000000000000000000000000000000000000000000000000000000081525081565b60006002905090565b6106b8826104af565b6106c18161096c565b6106cb8383610a89565b50505050565b60006106db610e45565b905060008160000160089054906101000a900460ff1615905060008260000160009054906101000a900467ffffffffffffffff1690506000808267ffffffffffffffff161480156107295750825b9050600060018367ffffffffffffffff1614801561075e575060003073ffffffffffffffffffffffffffffffffffffffff163b145b90508115801561076c575080155b156107a3576040517ff92ee8a900000000000000000000000000000000000000000000000000000000815260040160405180910390fd5b60018560000160006101000a81548167ffffffffffffffff021916908367ffffffffffffffff16021790555083156107f35760018560000160086101000a81548160ff0219169083151502179055505b6107fb610e6d565b8660008190555061082c7f55504752414445525f524f4c450000000000000000000000000000000000000087610980565b5083156108895760008560000160086101000a81548160ff0219169083151502179055507fc7f505b2f371ae2175ee4913f4499e1f2633a7b5936321eed1cdaeb6115181d2600160405161088091906118c9565b60405180910390a15b50505050505050565b7f4f50455241544f525f524f4c450000000000000000000000000000000000000081565b7f55504752414445525f524f4c450000000000000000000000000000000000000081565b60007f01ffc9a7000000000000000000000000000000000000000000000000000000007bffffffffffffffffffffffffffffffffffffffffffffffffffffffff1916827bffffffffffffffffffffffffffffffffffffffffffffffffffffffff1916149050919050565b60007f02dd7bc7dec4dceedda775e58dd541e08a116c6c53815c0bd028192f7b626800905090565b61097d81610978610a81565b610e95565b50565b60008061098b610944565b905061099784846105ed565b610a7557600181600001600086815260200190815260200160002060000160008573ffffffffffffffffffffffffffffffffffffffff1673ffffffffffffffffffffffffffffffffffffffff16815260200190815260200160002060006101000a81548160ff021916908315150217905550610a11610a81565b73ffffffffffffffffffffffffffffffffffffffff168373ffffffffffffffffffffffffffffffffffffffff16857f2f8788117e7eff1d82e926ec794901d17c78024a50270940304540a733656f0d60405160405180910390a46001915050610a7b565b60009150505b92915050565b600033905090565b600080610a94610944565b9050610aa084846105ed565b15610b7f57600081600001600086815260200190815260200160002060000160008573ffffffffffffffffffffffffffffffffffffffff1673ffffffffffffffffffffffffffffffffffffffff16815260200190815260200160002060006101000a81548160ff021916908315150217905550610b1b610a81565b73ffffffffffffffffffffffffffffffffffffffff168373ffffffffffffffffffffffffffffffffffffffff16857ff6391f5c32d9c69d2a47ea670b442974b53935d1edc7fd64eb21e047a839171b60405160405180910390a46001915050610b85565b60009150505b92915050565b7f000000000000000000000000000000000000000000000000000000000000000073ffffffffffffffffffffffffffffffffffffffff163073ffffffffffffffffffffffffffffffffffffffff161480610c3857507f000000000000000000000000000000000000000000000000000000000000000073ffffffffffffffffffffffffffffffffffffffff16610c1f610ee6565b73ffffffffffffffffffffffffffffffffffffffff1614155b15610c6f576040517fe07c8dba00000000000000000000000000000000000000000000000000000000815260040160405180910390fd5b565b7f55504752414445525f524f4c4500000000000000000000000000000000000000610c9b8161096c565b5050565b8173ffffffffffffffffffffffffffffffffffffffff166352d1902d6040518163ffffffff1660e01b8152600401602060405180830381865afa925050508015610d0757506040513d601f19601f82011682018060405250810190610d0491906118f9565b60015b610d4857816040517f4c9c8ce3000000000000000000000000000000000000000000000000000000008152600401610d3f9190611935565b60405180910390fd5b7f360894a13ba1a3210667c828492db98dca3e2076cc3735a920a3ca505d382bbc60001b8114610daf57806040517faa1d49a4000000000000000000000000000000000000000000000000000000008152600401610da691906113d1565b60405180910390fd5b610db98383610f3d565b505050565b7f000000000000000000000000000000000000000000000000000000000000000073ffffffffffffffffffffffffffffffffffffffff163073ffffffffffffffffffffffffffffffffffffffff1614610e43576040517fe07c8dba00000000000000000000000000000000000000000000000000000000815260040160405180910390fd5b565b60007ff0c57e16840df040f15088dc2f81fe391c3923bec73e23a9662efc9c229c6a00905090565b610e75610fb0565b610e7d610ff0565b610e85610ffa565b610e926000801b33610980565b50565b610e9f82826105ed565b610ee25780826040517fe2517d3f000000000000000000000000000000000000000000000000000000008152600401610ed9929190611950565b60405180910390fd5b5050565b6000610f147f360894a13ba1a3210667c828492db98dca3e2076cc3735a920a3ca505d382bbc60001b611004565b60000160009054906101000a900473ffffffffffffffffffffffffffffffffffffffff16905090565b610f468261100e565b8173ffffffffffffffffffffffffffffffffffffffff167fbc7cd75a20ee27fd9adebab32041f755214dbc6bffa90cc0225b39da2e5c2d3b60405160405180910390a2600081511115610fa357610f9d82826110db565b50610fac565b610fab61115f565b5b5050565b610fb861119c565b610fee576040517fd7e6bcf800000000000000000000000000000000000000000000000000000000815260040160405180910390fd5b565b610ff8610fb0565b565b611002610fb0565b565b6000819050919050565b60008173ffffffffffffffffffffffffffffffffffffffff163b0361106a57806040517f4c9c8ce30000000000000000000000000000000000000000000000000000000081526004016110619190611935565b60405180910390fd5b806110977f360894a13ba1a3210667c828492db98dca3e2076cc3735a920a3ca505d382bbc60001b611004565b60000160006101000a81548173ffffffffffffffffffffffffffffffffffffffff021916908373ffffffffffffffffffffffffffffffffffffffff16021790555050565b60606000808473ffffffffffffffffffffffffffffffffffffffff168460405161110591906119c0565b600060405180830381855af49150503d8060008114611140576040519150601f19603f3d011682016040523d82523d6000602084013e611145565b606091505b50915091506111558583836111bc565b9250505092915050565b600034111561119a576040517fb398979f00000000000000000000000000000000000000000000000000000000815260040160405180910390fd5b565b60006111a6610e45565b60000160089054906101000a900460ff16905090565b6060826111d1576111cc8261124b565b611243565b600082511480156111f9575060008473ffffffffffffffffffffffffffffffffffffffff163b145b1561123b57836040517f9996b3150000000000000000000000000000000000000000000000000000000081526004016112329190611935565b60405180910390fd5b819050611244565b5b9392505050565b60008151111561125e5780518082602001fd5b6040517f1425ea4200000000000000000000000000000000000000000000000000000000815260040160405180910390fd5b6000604051905090565b600080fd5b600080fd5b60007fffffffff0000000000000000000000000000000000000000000000000000000082169050919050565b6112d9816112a4565b81146112e457600080fd5b50565b6000813590506112f6816112d0565b92915050565b6000602082840312156113125761131161129a565b5b6000611320848285016112e7565b91505092915050565b60008115159050919050565b61133e81611329565b82525050565b60006020820190506113596000830184611335565b92915050565b6000819050919050565b6113728161135f565b811461137d57600080fd5b50565b60008135905061138f81611369565b92915050565b6000602082840312156113ab576113aa61129a565b5b60006113b984828501611380565b91505092915050565b6113cb8161135f565b82525050565b60006020820190506113e660008301846113c2565b92915050565b600073ffffffffffffffffffffffffffffffffffffffff82169050919050565b6000611417826113ec565b9050919050565b6114278161140c565b811461143257600080fd5b50565b6000813590506114448161141e565b92915050565b600080604083850312156114615761146061129a565b5b600061146f85828601611380565b925050602061148085828601611435565b9150509250929050565b600080fd5b600080fd5b6000601f19601f8301169050919050565b7f4e487b7100000000000000000000000000000000000000000000000000000000600052604160045260246000fd5b6114dd82611494565b810181811067ffffffffffffffff821117156114fc576114fb6114a5565b5b80604052505050565b600061150f611290565b905061151b82826114d4565b919050565b600067ffffffffffffffff82111561153b5761153a6114a5565b5b61154482611494565b9050602081019050919050565b82818337600083830152505050565b600061157361156e84611520565b611505565b90508281526020810184848401111561158f5761158e61148f565b5b61159a848285611551565b509392505050565b600082601f8301126115b7576115b661148a565b5b81356115c7848260208601611560565b91505092915050565b600080604083850312156115e7576115e661129a565b5b60006115f585828601611435565b925050602083013567ffffffffffffffff8111156116165761161561129f565b5b611622858286016115a2565b9150509250929050565b6000819050919050565b61163f8161162c565b82525050565b600060208201905061165a6000830184611636565b92915050565b600081519050919050565b600082825260208201905092915050565b60005b8381101561169a57808201518184015260208101905061167f565b60008484015250505050565b60006116b182611660565b6116bb818561166b565b93506116cb81856020860161167c565b6116d481611494565b840191505092915050565b600060208201905081810360008301526116f981846116a6565b905092915050565b61170a8161162c565b811461171557600080fd5b50565b60008135905061172781611701565b92915050565b600080604083850312156117445761174361129a565b5b600061175285828601611718565b925050602061176385828601611435565b9150509250929050565b7f4e6f7468696e6720696e73696465000000000000000000000000000000000000600082015250565b60006117a3600e8361166b565b91506117ae8261176d565b602082019050919050565b600060208201905081810360008301526117d281611796565b9050919050565b7f4e487b7100000000000000000000000000000000000000000000000000000000600052601160045260246000fd5b60006118138261162c565b915061181e8361162c565b9250828203905081811115611836576118356117d9565b5b92915050565b60006118478261162c565b91506118528361162c565b925082820190508082111561186a576118696117d9565b5b92915050565b6000819050919050565b600067ffffffffffffffff82169050919050565b6000819050919050565b60006118b36118ae6118a984611870565b61188e565b61187a565b9050919050565b6118c381611898565b82525050565b60006020820190506118de60008301846118ba565b92915050565b6000815190506118f381611369565b92915050565b60006020828403121561190f5761190e61129a565b5b600061191d848285016118e4565b91505092915050565b61192f8161140c565b82525050565b600060208201905061194a6000830184611926565b92915050565b60006040820190506119656000830185611926565b61197260208301846113c2565b9392505050565b600081519050919050565b600081905092915050565b600061199a82611979565b6119a48185611984565b93506119b481856020860161167c565b80840191505092915050565b60006119cc828461198f565b91508190509291505056fea264697066735822122067fa2c6008f8a0aa1bf9ed172e4a2320869f7cbb89b67dc06e084366aa28b94164736f6c63430008140033",
  "linkReferences": {},
  "deployedLinkReferences": {}
}